:020000040000FA
:100000000C94BC000C940A0A0C94E3090C94E400D0
:100010000C94E4000C94E4000C94E4000C94E400D0
:100020000C94E4000C94E4000C94E4000C94E400C0
:100030000C94E4000C94E4000C94E4000C94E400B0
:100040000C9499090C94E4000C94E4000C94E400E2
:100050000C94E4000C94E4000C94E4000C94E40090
:100060000C94310A0C94E40008000000BE9224496C
:10007000123EABAAAA2ABECDCCCC4C3E00000080DA
:10008000BEABAAAAAA3E00000000BF000000803F4D
:100090000000000000084178D3BB4387D1133D190D
:1000A0000E3CC3BD4282AD2B3E68EC8276BED98F3A
:1000B000E1A93E4C80EFFFBE01C4FF7F3F0000007E
:1000C0000000537765657000487A00663D000000C7
:1000D0000000250028002B0000000000230026005F
:1000E00029000000000800020100000304070000CE
:1000F00000000000000000000000240027002A008B
:1001000001020408102040800102040810200102AE
:10011000040810200404040404040404020202027B
:100120000202030303030303526573657420746FB3
:100130002064656661756C74004572726F723A4333
:10014000524320454550524F4D002D53686167671B
:1001500079446F6720323032312D005369676E6108
:100160006C2047656E657261746F7200436823008E
:100170002F320000500B671111241FBECFEFD4E0C7
:10018000DEBFCDBF11E0A0E0B1E0ECE2F9E202C0D9
:1001900005900D92AC37B107D9F722E0ACE7B1E09A
:1001A00001C01D92AF3CB207E1F710E0CBEBD0E00D
:1001B00004C02197FE010E947414CA3BD107C9F7FD
:1001C0000E94C00B0C9489140C940000882389F0C1
:1001D000EFEFE80FF0E06AE070E080E090E0FE17FB
:1001E00060F4AAE0B0E09B01AC010E946914FF5FDB
:1001F000F6CF61E070E080E090E00895EBE4F2E09B
:100200008FEF31E392E0E835F90771F0919198278B
:1002100028E0892F880F97FF03C0990F892F832724
:100220002150982FB1F7EECF089508950895AF9219
:10023000BF92CF92DF92EF92FF920F931F93CF93D3
:10024000DF936C017B018B01040F151FEB015E0135
:10025000AE18BF08C017D10759F06991D601ED91CA
:10026000FC910190F081E02DC6010995892B79F769
:10027000C501DF91CF911F910F91FF90EF90DF901B
:10028000CF90BF90AF900895833081F028F48130F3
:1002900099F08230A9F008958730A9F08830C9F02C
:1002A0008430B1F4809180008F7D03C08091800004
:1002B0008F7780938000089584B58F7784BD0895EB
:1002C00084B58F7DFBCF8091B0008F778093B00095
:1002D00008958091B0008F7DF9CFCF93DF93282FC1
:1002E00030E0F901EE51FF4F8491F901E050FF4FEA
:1002F000D491F901EC5EFE4FC491CC23A1F08111A1
:100300000E944401EC2FF0E0EE0FFF1FE852FF4F78
:10031000A591B491EC91ED2381E090E009F480E0A7
:10032000DF91CF91089580E090E0FACF1F93CF93B3
:10033000DF93282F30E0F901EE51FF4F8491F9014E
:10034000E050FF4FD491F901EC5EFE4FC491CC23F5
:10035000A9F0162F81110E944401EC2FF0E0EE0F5E
:10036000FF1FE253FF4FA591B4918FB7F894EC9122
:10037000111108C0D095DE23DC938FBFDF91CF91A0
:100380001F910895DE2BF8CF1F93CF93DF93EC01DD
:1003900080918A02882309F452C080915A028823EE
:1003A00061F08FB7F89490915A029130B9F59DB3EE
:1003B000909359029DB39DBB8FBF88E58CBD81E0B2
:1003C0008DBD60E0809189020E9496019C2F8D2F47
:1003D0000CB405FC26C0DEBD00000DB407FEFDCF49
:1003E0008EB59EBD00000DB407FEFDCF8EB561E059
:1003F000809189020E94960180915A02882351F0CF
:100400009FB7F89420915A02809159022130A9F4A3
:100410008DBB9FBFDF91CF911F91089580935902AB
:10042000CCCFCEBD00000DB407FEFDCF9EB58EBD76
:1004300000000DB407FEFDCFD9CF8FBFEBCF60E03A
:10044000809189020E94960110E16D2F661F662738
:10045000661F809187020E94960160E08091880269
:100460000E94960161E0809188020E949601CC0F63
:10047000DD1F115051F760E0809187020E949601C4
:1004800061E080918902DF91CF911F910C949601D8
:1004900090937A02809379022091670230916802EA
:1004A00082309105E1F068F40097B9F02D7D019755
:1004B00079F080916702909168020E94C40181E006
:1004C00008958430910589F068F02F73059789F7B6
:1004D0003093680220936702ECCF206CF9CF2D7F18
:1004E0002862F6CF257F2062F3CF2F7D2260F0CFE8
:1004F000EF92FF920F931F93CF93DF93EC01CB0109
:10050000BA01FE01EE0FFF1FEE0FFF1FE558FD4F72
:1005100060837183828393838E01000F111F000F0C
:10052000111F980129593D4F790120E030E040E842
:100530005DE40E94A51320E23CEB4EEB5BE40E94DD
:100540001E1220E030E040E05FE30E94B2110E9402
:100550009012F7016283738384839583219759F105
:10056000C0E0D0E480916702909168020E94C401CB
:1005700009591D4FF801828193819F738C2B9D2B0C
:100580000E94C401F80182819381A481B5812EE08B
:10059000B695A795979587952A95D1F79F738C2B3C
:1005A0009D2B0E94C40181E0DF91CF911F910F919B
:1005B000FF90EF900895C0E0D0E8D4CFCF93DF93C1
:1005C00090E0FC01E050FF4F24918C5E9E4FFC01B7
:1005D00084918823C9F090E0880F991FFC01EA50AC
:1005E000FF4FA591B491FC01E253FF4FC591D49107
:1005F00061110DC09FB7F8948C91209582238C9344
:100600008881282328839FBFDF91CF91089562308E
:1006100051F49FB7F8943C91822F809583238C935B
:10062000E8812E2BEFCF8FB7F894EC912E2B2C93E3
:100630008FBFEACF3FB7F894809133029091340294
:10064000A0913502B091360226B5A89B05C02F3F78
:1006500019F00196A11DB11D3FBFBA2FA92F982FE8
:100660008827BC01CD01620F711D811D911D42E0E3
:10067000660F771F881F991F4A95D1F708958F92AB
:100680009F92AF92BF92CF92DF92EF92FF924B0177
:100690005C010E941A036B017C010E941A036C1911
:1006A0007D098E099F09683E734081059105A8F375
:1006B00021E0821A9108A108B10888EEC80E83E0F3
:1006C000D81EE11CF11C81149104A104B10429F786
:1006D000FF90EF90DF90CF90BF90AF909F908F9062
:1006E00008952FB7F89460912F0270913002809195
:1006F0003102909132022FBF089508952091E401B4
:10070000260F3327331F21323105ECF420910802E4
:10071000FC0190E080E0243069F082E00895A0912F
:10072000E4012191AC014C535E4FA40FB52FB11DD4
:100730002C930196861798F38091E401680F6093DB
:10074000E40180E0089581E008951092080281E0BC
:1007500080930A021092090261E082E10E949601F0
:1007600061E083E10E949601E9EBF0E080818E7FF9
:10077000808380818D7F808388E48093B80085E4C6
:100780008093BC000895CF93DF9391E09093C301D1
:100790008823B9F0C091B800D091BA008091BC0014
:1007A0008A7B8093BC0060E082E10E94960160E059
:1007B00083E10E9496010E94A503D093BA00C093E2
:1007C000B800DF91CF9108950895E0913E028091A5
:1007D0003D02E81730F4F0E0E256FE4F808190E0F1
:1007E00008958FEF9FEF089590913E0280913D0212
:1007F0002FEF3FEF981748F4E92FF0E0E256FE4F55
:10080000208130E09F5F90933E02C901089580915E
:100810003D0290913E02891B990B0895CF92DF9281
:10082000EF92FF920F931F93CF93DF937C01CB0145
:100830008A0120919D01222389F0EB016B01C40EF6
:10084000D51ECC15DD0569F06991D701ED91FC91BC
:100850000190F081E02DC7010995F3CF642F0E942C
:100860007E03C801DF91CF911F910F91FF90EF9010
:10087000DF90CF900895CF93DF931F92CDB7DEB76F
:10088000698320919D012223F9F020913B022032BF
:1008900058F021E030E0FC013383228390E080E0D7
:1008A0000F90DF91CF91089580913C02E82FF0E006
:1008B000E358FE4F998190838F5F80933C02809331
:1008C0003B0281E090E0ECCF61E0CE0101960E9416
:1008D0007E03F7CFCF92DF92EF92FF920F931F9399
:1008E000CF93DF93FC01C48121E020939D01C0934D
:1008F0007C0110923C0210923B028385682B8BE5B1
:1009000092E00E943B04D0913B02D13208F092C0A9
:100910000E941A036B017C0180910802811165C05D
:1009200082E08093080281E080930A028FEF809337
:10093000070210922C02D0932B02ADE7B1E0EBE05E
:10094000F2E080E0D81385C010922D0280912D0234
:10095000CC0FC82BC0932D0280910902813009F081
:100960007CC0109209020E941A036B017C018091E5
:100970002D028093BB008091BF019091C001A09196
:10098000C101B091C201892B8A2B8B2B99F00E9457
:100990001A030091BF011091C0012091C101309153
:1009A000C2016C197D098E099F09061717072807D0
:1009B0003907E0F18091BC0083FDD9CF85EC8093AD
:1009C000BC000E941A036B017C01809108028230F6
:1009D00009F445C0809107028F3F61F180910702C1
:1009E000803241F18091070225C08091BF01909132
:1009F000C001A091C101B091C201892B8A2B8B2B20
:100A000009F48ACF0E941A030091BF011091C0011E
:100A10002091C1013091C2016C197D098E099F0995
:100A2000061717072807390708F076CF8091BE010F
:100A30000E94C30310923C0210923B0210929D014F
:100A4000DF91CF911F910F91FF90EF90DF90CF90AA
:100A500008959D9191938F5F75CF85EEB0CF809172
:100A6000BF019091C001A091C101B091C201892B39
:100A70008A2B8B2B09F4A9CF0E941A030091BF0186
:100A80001091C0012091C1013091C2016C197D0902
:100A90008E099F09061717072807390708F095CF11
:100AA000C5CF089590E080E00895209167023091CD
:100AB00068028823C9F0C901986090936802809306
:100AC00067020E94C40180914F0290915002A09150
:100AD0005102B09152028093430290934402A0933A
:100AE0004502B09346020895C901977F909368022A
:100AF000809367020E94C40180914B0290914C0246
:100B0000A0914D02B0914E02E6CF813051F028F015
:100B1000823051F0833059F0089581E090E00C94D8
:100B2000480284E090E0FBCF82E090E0F8CF83E0E1
:100B300090E0F5CFCF938091AC020E946D01C82F59
:100B40008091AD020E946D01880F990BC82B809196
:100B5000AE02C81709F45DC0E091AE024091AF0249
:100B60005091B0026091B1027091B20284E0E8024B
:100B7000F00111248C2F0C2E000C990BE82BF92B73
:100B8000EF5EFE4F9081892F990F990BAA0BBB0B3B
:100B9000840F951FA61FB71F8093AF029093B002DA
:100BA000A093B102B093B202C33089F58091AF0235
:100BB0009091B002A091B102B091B20222E0B5953D
:100BC000A795979587952A95D1F78093B30290932F
:100BD000B402A093B502B093B6028091BB0290918B
:100BE000BC02A091BD02B091BE028093BF0290935F
:100BF000C002A093C102B093C2020E94710360932D
:100C0000BB027093BC028093BD029093BE02C0935E
:100C1000AE02CF9108950F931F93CF938C01C62FEF
:100C20000E946A046C2F6460C8010E946A046C2FE1
:100C30006B7FC8010E946A0483EC90E00197F1F792
:100C4000CF911F910F9108950F931F93CF93DF932F
:100C50008C01D62FC42F607F642B0E940B0680E18D
:100C6000D89FB00111246C2BC801DF91CF911F9147
:100C70000F910C940B0640E0682F83EC92E00C94EB
:100C8000240681E00E943B068BE39FE10197F1F788
:100C90000895EBE4F2E084858F5F8370848781E0C0
:100CA000809305010C944106CF93DF93CDB7DEB757
:100CB00028970FB6F894DEBF0FBECDBF98E0E9E0ED
:100CC000F1E0DE01119601900D929A95E1F7909175
:100CD000CC02961708F46FEF70E0660F771F21E0E3
:100CE00030E02C0F3D1F620F731FFB019081890FB5
:100CF000806828960FB6F894DEBF0FBECDBFDF9197
:100D0000CF910C943B06E3ECF2E08681982F916042
:100D1000968389600C943B06E3ECF2E08681982F81
:100D2000926096838A600C943B06E82FF0E0EF5DBA
:100D3000FE4F808160E0803110F0805161E00E94C0
:100D400054060C948C06E3ECF2E086818E7F868359
:100D500088600C943B0681E080934102109242022D
:100D60000E94A30660E080E00E9454060C948C066A
:100D700020914102213039F020F0223009F442C0A4
:100D800008950C94AB0690914202913079F040F0B6
:100D90009230D9F0933049F181E0809305010895B4
:100DA00082E0809341020E948C06F6CF809106017A
:100DB000982790930601911105C090E080E00E9471
:100DC0004802EACF85E090E0FACF80915502822771
:100DD000809355020E945505E0915502F0E0E55BD5
:100DE000FD4F80850E948505D7CFE0915502F0E048
:100DF000E55BFD4F80858F5F843011F08087F1CFF8
:100E00001086EFCF8091070191E089278093070139
:100E100081110C94A3060C948306809141028130C9
:100E200019F0823041F0089510924102109242026E
:100E300080930401089581E0809307010C94AB0630
:100E400041E00E94240681E090E008950F931F93F3
:100E5000CF93DF938B0128E0829FC001112480642F
:100E60000E943B06E801085F1F4F699183EC92E006
:100E70000E942007C017D107C1F7DF91CF911F91C2
:100E80000F91089541E0682F83EC92E00E942406C0
:100E900081E090E008950F931F93CF93DF938C012F
:100EA000D0E0C0E0F801EC0FFD1F6491662339F03B
:100EB00041E083EC92E00E9424062196F3CFCE011C
:100EC000DF91CF911F910F9108958F929F92AF92D2
:100ED000BF920F931F93CF93DF93CDB7DEB7A19748
:100EE0000FB6F894DEBF0FBECDBF19A2423008F492
:100EF0004AE08E010F5D1F4F842E912CB12CA12C46
:100F0000A50194010E944714E62FB901CA01EA30F5
:100F100044F5E05DD801EE938D01232B242B252B86
:100F200079F790E080E0109769F0FD0101900020D2
:100F3000E9F73197AF014A1B5B0BBD0183EC92E0EF
:100F40000E941701A1960FB6F894DEBF0FBECDBF69
:100F5000DF91CF911F910F91BF90AF909F908F9095
:100F60000895E95CD7CF4F925F926F927F928F92F4
:100F70009F92AF92BF92CF92DF92FF920F931F93F7
:100F8000CF93DF93CDB7DEB728970FB6F894DEBFC7
:100F90000FBECDBF4B015C0160E080E00E945406B3
:100FA0008BEC90E00E944B078E010F5F1F4FF12CDE
:100FB00068018AE0482E512C612C712CC501B401C6
:100FC000A30192010E944714F80161938F01490126
:100FD0005A0181149104A104B10421F0F394F8E0C2
:100FE000FF12ECCFAF2CB12C80914002082E000CE8
:100FF000990BA816B90614F4F092400207E010E02D
:1010000090915702892F817091FF46C0A016B106BA
:1010100044F5882339F0053011F0023019F480E2EC
:101020000E94420780E20E9442070150110940F7E6
:1010300088EC90E028960FB6F894DEBF0FBECDBFC7
:10104000DF91CF911F910F91FF90DF90CF90BF90D4
:10105000AF909F908F907F906F905F904F900C9487
:101060004B07882339F0053081F4F01213C080E279
:101070000E944207F601E00FF11F608170E090E0EE
:1010800080E04AE00E946507D0CF023099F7E2E0A5
:10109000FE1669F387E2ECCF882339F0053011F0B2
:1010A000023019F487E20E944207A016B10614F735
:1010B00080E3B9CF85ED8093BC008091BF01909112
:1010C000C001A091C101B091C2010796A11DB11D3F
:1010D00023E0B695A795979587952A95D1F7209106
:1010E000BC0024FD03C01092080208954091BF0186
:1010F0005091C0016091C1017091C201452B462BF6
:10110000472B69F30097A105B10541F025E32A9526
:10111000F1F700000197A109B109E1CF8091BE016B
:101120000C94C3031F93CF93DF93D82FC0E018E034
:101130001092CE0260E083EC92E00E946A042FEFEE
:1011400085EA9EE0215080409040E1F700C0000019
:101150001093CE0260E083EC92E00E946A042FEFCD
:1011600085EA9EE0215080409040E1F700C00000F9
:10117000CF5FDC13DDCFDF91CF911F9108950E94E7
:10118000FE00809358024EE050E070E060E08BE497
:1011900092E00C948F114F925F926F927F928F9298
:1011A0009F92AF92BF92CF92DF92EF92FF92CF9336
:1011B00080914102813009F0AAC0809142028230C0
:1011C00009F092C08091550281118EC061E00E94A9
:1011D000540682EC90E00E944B070E9483064090E8
:1011E0004F025090500260905102709052028090D5
:1011F0004B0290904C02A0904D02B0904E027501AF
:10120000640180914F0290915002A0915102B091DF
:101210005202481459046A047B04D0F1C816D90656
:10122000EA06FB06D0F5C701B6010E94BF120E9474
:101230004D130E949012862F611181500E94E6008A
:10124000481459046A047B0408F45CC0C60ED71E17
:10125000E81EF91EC701B6010E94BF12AB01BC0116
:1012600090E080E00E947802C701B6010E94B307B7
:1012700084E00E946D01892B81F02FEF84E39CE0D4
:10128000215080409040E1F700C00000A895B9CF00
:101290008C159D05AE05BF0530F281E080930801F5
:1012A000809305018FB7F894C8E1C0936000109255
:1012B00060008FBF2FEF8BE792E921508040904074
:1012C000E1F700C0000061E084E00E94540680E283
:1012D0000E9442070E94A3068FB7F894C093600053
:1012E0009FE0909360008FBFCF91FF90EF90DF90D1
:1012F000CF90BF90AF909F908F907F906F905F90B6
:101300004F900895C61AD70AE80AF90AA3CF0E9497
:10131000BF0882E0CF91FF90EF90DF90CF90BF9019
:10132000AF909F908F907F906F905F904F900C94B4
:1013300092081F920F920FB60F9211242F933F9392
:101340008F939F93AF93BF9380912F029091300220
:10135000A0913102B091320230912E0223E0230F8E
:101360002D3758F50196A11DB11D20932E028093B3
:101370002F0290933002A0933102B09332028091F9
:10138000330290913402A0913502B0913602019659
:10139000A11DB11D8093330290933402A0933502B6
:1013A000B0933602BF91AF919F918F913F912F9152
:1013B0000F900FBE0F901F90189526E8230F0296EE
:1013C000A11DB11DD2CF1F920F920FB60F92112403
:1013D0002F933F934F935F936F937F938F939F933D
:1013E000AF93BF93EF93FF93E0910201F09103015C
:1013F0000995FF91EF91BF91AF919F918F917F914F
:101400006F915F914F913F912F910F900FBE0F9071
:101410001F9018951F920F920FB60F9211242F93C1
:101420003F934F935F936F937F938F939F93AF936C
:10143000BF93EF93FF93E0910001F09101010995B3
:10144000FF91EF91BF91AF919F918F917F916F919C
:101450005F914F913F912F910F900FBE0F901F9072
:1014600018951F920F920FB60F9211242F933F934E
:101470004F935F936F937F938F939F93AF93BF939C
:10148000EF93FF938091B900887F803609F44AC0BA
:10149000F0F5883209F4A7C018F5803109F49BC033
:1014A000B8F4882309F4F9C0883009F494C0FF9196
:1014B000EF91BF91AF919F918F917F916F915F91CC
:1014C0004F913F912F910F900FBE0F901F90189545
:1014D000883109F488C0803251F78093070214C024
:1014E000803409F49DC040F48033B9F38833F9F6B1
:1014F0008093070285ECB0C0803509F485C088353B
:1015000009F496C0883499F60E945A08D0CF8839D9
:1015100009F48CC038F5883729F050F4883611F07A
:10152000803729F683E0809308021092060257C0A4
:10153000883809F47BC0803919F0803809F0B7CFBA
:1015400080910602803208F071C0E091060281E0CD
:101550008E0F809306028091BB00F0E0EA51FE4FAF
:1015600080833DC0803B39F0E0F4803A09F479C0D3
:10157000883A09F09CCF84E0809308021092E5013C
:101580001092E401E0913902F0913A0209958091BC
:10159000E40181110FC081E08093E4011092C40145
:1015A00009C0803C09F4A6CF883C09F4A3CF883B4E
:1015B00009F07DCFE091E50181E08E0F8093E50198
:1015C000F0E0EC53FE4F80818093BB009091E501E9
:1015D0008091E40129C080912D028093BB0085ECAD
:1015E0008093BC0064CF90912C0280912B029817BD
:1015F00058F5E0912C0281E08E0F80932C02F0E0F0
:10160000E55FFD4F8081E9CFE0912C0281E08E0FF4
:1016100080932C028091BB00F0E0E55FFD4F80835A
:1016200090912C0280912B029817C8F285E8D8CFB0
:10163000E0912C0281E08E0F80932C028091BB0000
:10164000F0E0E55FFD4F808380910A0281115CCF5D
:1016500081E08093090284EA8093BC001092080222
:1016600026CF85EC8093BC00109208028091060280
:10167000803230F4E0910602F0E0EA51FE4F108231
:101680006091060270E0E0913702F091380286EE38
:1016900091E00995109206020ACF1092070234CF0A
:1016A0001F93CF93DF93EBE5F2E01382128288EE73
:1016B00093E0A0E0B0E084839583A683B78381E6BE
:1016C00091E091838083E3ECF2E01382128283E75E
:1016D00091E0918380838FE3848380E1808782E03F
:1016E0008187128698E09387CCEAD2E013E01883D2
:1016F000898362E083E00E94DE0262E082E00E9471
:10170000DE021A831B821C821D821E821F821886A3
:1017100019861A861B861C861D861E86EBE8F2E05B
:10172000118210821382128215821482178216820D
:1017300011861086138612861586148682E390E041
:10174000918B808B80E991E0938B828B80E293E098
:10175000958B848B178E10A284E090E09787868704
:10176000168E62E00E94DE02E7E6F2E010A211A20D
:101770008AE082A381E083A3DF91CF911F91089536
:10178000789484B5826084BD84B5816084BD85B55C
:10179000826085BD85B5816085BD80916E00816068
:1017A00080936E001092810080918100826080930E
:1017B0008100809181008160809381008091800010
:1017C0008160809380008091B10084608093B1003B
:1017D0008091B00081608093B00080917A00846035
:1017E00080937A0080917A00826080937A00809161
:1017F0007A00816080937A0080917A00806880937B
:101800007A001092C10010923E0210923D02109296
:101810003C0210923B020E94A50385E191E0909367
:101820003A028093390286E191E0909338028093E6
:1018300037021092C8028091CC02823018F098E0F2
:101840009093C8029091CD02992339F0813029F408
:101850008091C80284608093C80262E370E080E0F7
:1018600090E00E943F036091CE0283EC92E00E94E0
:101870006A0468EE73E080E090E00E943F0360E35A
:1018800083EC92E00E940B06CBE4D6E4CE010197F4
:10189000F1F760E383EC92E00E940B062197F1F7E9
:1018A00060E383EC92E00E940B0683E592E00197EF
:1018B000F1F760E283EC92E00E940B068091C8028F
:1018C00080620E943B0684E08093C9028CE00E9403
:1018D0003B060E94410682E08093CA0286E00E9495
:1018E0003B0682E00E943B06CBE3DFE1CE0101979D
:1018F000F1F765E571E080E00E9426076DE471E094
:1019000081E00E94260765E371E082E00E942607DD
:101910006DE371E083E00E94260765E471E084E0F6
:101920000E94260765E271E085E00E9426076DE2CD
:1019300071E086E00E94260788EB96E090938C0287
:1019400080938B028DE097E09093940280939302B2
:101950008BEC98E090938E0280938D0289E496E060
:101960009093900280938F0282E00E943B06219721
:10197000F1F788E08093CE0260E083EC92E00E9471
:101980006A048BE591E00E944B0761E080E00E94D1
:1019900054068AE491E00E944B072FEF3DE389E46F
:1019A000215030408040E1F700C0000080918A0261
:1019B000882309F47FC2CFB7F89480913F02811148
:1019C00027C0EEE1F1E08491EAE0F1E09491E82FA4
:1019D000F0E0EE0FFF1FEA50FF4FA591B491EC919C
:1019E000E92321F461E08AE00E94960161E08AE047
:1019F0000E94DE028CB580618CBD8CB580648CBD8C
:101A000061E08DE00E94DE0261E08BE00E94DE0278
:101A100080913F028F5F80933F02CFBF61E0809152
:101A200089020E94DE0261E0809189020E94960193
:101A300080E090E290936802809367020E94C40164
:101A40008091670290916802916090936802809300
:101A500067020E94C40140E050E06AE774E490E04D
:101A600080E00E94780240E050E06AE774E481E0A0
:101A700090E00E94780210928402109283021092E9
:101A8000710210927202109273021092740280E03E
:101A900090EC0E94C401109286021092850210926E
:101AA000750210927602109277021092780280E00E
:101AB00090EE0E94C401809167029091680291604B
:101AC00090936802809367020E94C401809167022C
:101AD000909168029E7F90936802809367020E94B3
:101AE000C40181E090E090937A0280937902809122
:101AF0006702909168028D719093680280936702EB
:101B00000E94C4018091670290916802977F909330
:101B10006802809367020E94C401809167029091DD
:101B200068029B7F90936802809367020E94C401C1
:101B30004EE050E070E060E08BE492E00E947F11A4
:101B40000E94FE0090915802C0E08917E1F060E029
:101B500080E00E94540689E391E00E944B0761E017
:101B600080E00E94540688E291E00E944B079FEFBC
:101B70002BE732E9915020403040E1F700C00000EF
:101B80000E944106C1E084E00E946D01892B11F0A2
:101B9000CC2391F160E080E00E94540688E291E05D
:101BA0000E944B0788EE93E0A0E0B0E080934F02E4
:101BB00090935002A0935102B093520280934B0233
:101BC00090934C02A0934D02B0934E021092530298
:101BD00082E080935402109256021092550283E0E4
:101BE000809357020E94920884E00E946D01892B25
:101BF000D9F3C1110E94BF0860914B0270914C0251
:101C000080914D0290914E020E94BF12AB01BC0127
:101C100090E080E00E94780260914F027091500243
:101C200080915102909152020E94BF12AB01BC01FF
:101C300081E090E00E947802E0915502F0E0E55BDF
:101C4000FD4F80850E948505809155020E945505B3
:101C50002AE935E030930301209302018091690065
:101C6000837F846080936900E99A30930101209317
:101C70000001809169008C7F816080936900E89AFF
:101C80000E9441068FB7F89498E1909360009FE01E
:101C9000909360008FBF30E0832E30E0932E43E0BE
:101CA000242E52E0352E11E060E2462E6CEB562ECB
:101CB0006EEB662E712C09E08091990290919A0248
:101CC00097FD1FC00E946D015C01C091A902D0E088
:101CD0000E9471036B017C018091A1029091A2028C
:101CE0009601281B390BC9014091AB02423009F41F
:101CF0004EC108F0EFC0442309F4FBC0413009F4A1
:101D000009C14091B7025091B8026091B902709137
:101D1000BA028091B3029091B402A091B502B09141
:101D2000B60284179507A607B7070CF08EC140913D
:101D3000B3025091B4026091B5027091B6028091E5
:101D4000B7029091B802A091B902B091BA0201977E
:101D5000A109B109481759076A077B070CF473C139
:101D60009FEF4091B3025091B4026091B50270911F
:101D7000B6024093B7025093B8026093B9027093D1
:101D8000BA0280914102813009F402C2823009F422
:101D900008C280910801882391F10E947103C090CC
:101DA0004702D0904802E0904902F0904A026C1934
:101DB0007D098E099F096139714081059105F8F00F
:101DC000C091550260914302709144028091450296
:101DD00090914602D0E0FE01EE0FFF1FEE0FFF1FB5
:101DE000E55BFD4F60837183828393830E94BF1202
:101DF000AB01BC01CE010E947802109208018091D3
:101E00000501882309F446C06091430270914402A1
:101E100080914502909146020E94B307C09106014D
:101E20008091570260E080FFEBC18FE00E94540672
:101E30008EE7C11101C08BED0E944207C09155028F
:101E400061E080E00E9454068CE691E00E944B071E
:101E50006C2F70E090E080E04AE00E946507E0911E
:101E60005502F0E0E55BFD4FC08561E08DE00E942A
:101E70005406C13009F4E3C108F4D1C1C23009F4F9
:101E8000E8C1C33009F4F1C1809142020E94950675
:101E90001092050180914102882309F4F0C182303B
:101EA00009F403C2A8958114910409F405CF0E9496
:101EB000000001CF61E0809187020E94DE0260E0B5
:101EC000809188020E94960161E0809188020E94C0
:101ED000DE02A4CD433009F498C0443009F011CF9C
:101EE000AC16BD0609F0A5C0E0919702F0919802EA
:101EF00049C0AC16BD0609F004CF1093AB02C092E6
:101F0000A102D092A202E092A302F092A402109247
:101F1000AA02F7CEAC16BD06E9F420919F023091DB
:101F2000A0022817390708F0ECCE4093AA02E091EE
:101F30009302F0919402309709F0099534E03093C0
:101F4000AB02C092A502D092A602E092A702F09244
:101F5000A802D7CE20919B0230919C028217930752
:101F600018F41092AB02CDCE3092AB02C092A50213
:101F7000D092A602E092A702F092A802E09191020C
:101F8000F0919202309709F4BCCE0995BACE209117
:101F90009D0230919E0228173907C8F48091AA0249
:101FA0008F5F8093AA02E0918B02F0918C028130C6
:101FB00051F0E0918D02F0918E02823021F0E0919B
:101FC0008F02F0919002309761F20995CACFAC165A
:101FD000BD0609F096CE8091A5029091A6029601C9
:101FE000281B390B80919B0290919C0282179307CA
:101FF00008F087CE2092AB02C092A102D092A2023A
:10200000E092A302F092A4027CCEAC16BD0609F4C5
:1020100078CE20919B0230919C022817390708F056
:1020200070CE8091AA028F5F8093AA023092AB0299
:1020300088CFE0919502F0919602309709F00995CA
:102040001092AB027ECF9EEF8CCE4091B7025091A2
:10205000B8026091B9027091BA028091B302909176
:10206000B402A091B502B091B602481759076A07A9
:102070007B070CF08ECE4091B3025091B402609178
:10208000B5027091B6028091B7029091B802A0910A
:10209000B902B091BA020196A11DB11D841795072E
:1020A000A607B7073CF191E04091B3025091B4020A
:1020B0006091B5027091B6024093B7025093B80296
:1020C0006093B9027093BA02809141028130A1F00D
:1020D00008F473C0823009F05CCE809140022091F8
:1020E00007012223C1F018160CF053CE81508093C3
:1020F00040024FCE92E0D8CF809142028F5F843071
:1021000019F08093420202C0109242028091420272
:102110000E9495063ECEC0904302D0904402E090CB
:102120004502F0904602923009F48F5F0E94E6006B
:10213000C60ED71EE81EF91EC0924302D09244027A
:10214000E0924502F092460280914302909144024F
:10215000A0914502B091460281329C4BAE4BB10535
:1021600040F04092430250924402609245027092C5
:1021700046020E9471036093470270934802809365
:10218000490290934A02109308011093050101CE71
:1021900080914202811103C020924202B7CF815048
:1021A000B0CF8091400220910701222349F087306F
:1021B00014F48F5F9CCF109240020E94AB06E9CDD1
:1021C000C0904302D0904402E0904502F090460255
:1021D0009E3F09F48F5F0E94E6006C157D058E0519
:1021E0009F0508F0D6CDC61AD70AE80AF90AC092A8
:1021F0004302D0924402E0924502F0924602B9CFE7
:102200008EE00E9454068FE40E9442078EE4C111C2
:1022100013CE60E083EC92E00E9420070FCE62E0D4
:1022200083EC92E00E94200763E083EC92E00E943E
:10223000200764E083EC92E00E94200725CE65E051
:1022400083EC92E00E9420078FE20E94420766E042
:10225000F1CF61E083EC92E00E94200761E083EC23
:1022600092E00E94200761E0E5CF61E083EC92E01C
:102270000E94200780E791E00E944B0705CE8091E5
:102280000401882309F40ECE60E080E00E94540629
:102290008091C9028D7F8093C90288600E943B06AD
:1022A0000E94830610920401FDCD9091400280911E
:1022B000570280FF06C08BE0933024F08AE096300E
:1022C0000CF0802F891B60E00E945406EBCD8091BA
:1022D0008A02882399F09FB7F89480913F0288235F
:1022E00019F0815080933F0280913F02811105C017
:1022F0008CB58F7B8CBD10925A029FBF0895DC0174
:10230000CB01FC01F999FECF06C0F2BDE1BDF89A00
:10231000319600B40D9241505040B8F70895DC0159
:10232000A40FB51F4150504048F0CB01840F951FBA
:102330002E910E94A01141505040D0F70895262FB1
:10234000F999FECF92BD81BDF89A019700B40216AB
:1023500039F01FBA20BD0FB6F894FA9AF99A0FBE59
:1023600008955058BB27AA270E94C9110C94131333
:102370000E94051338F00E940C1320F039F49F3F9F
:1023800019F426F40C9402130EF4E095E7FB0C9478
:10239000FC12E92F0E94241358F3BA17620773073F
:1023A0008407950720F079F4A6F50C9446130EF4F3
:1023B000E0950B2EBA2FA02D0B01B90190010C0155
:1023C000CA01A0011124FF27591B99F0593F50F46D
:1023D000503E68F11A16F040A22F232F342F4427C5
:1023E000585FF3CF469537952795A795F0405395BD
:1023F000C9F77EF41F16BA0B620B730B840BBAF08D
:102400009150A1F0FF0FBB1F661F771F881FC2F7F7
:102410000EC0BA0F621F731F841F48F4879577950B
:102420006795B795F7959E3F08F0B0CF9395880FC5
:1024300008F09927EE0F9795879508950E9432121C
:102440000C9413130E940C1358F00E94051340F0D3
:1024500029F45F3F29F00C94FC1251110C9447139E
:102460000C9402130E94241368F39923B1F35523AB
:1024700091F3951B550BBB27AA2762177307840797
:1024800038F09F5F5F4F220F331F441FAA1FA9F32D
:1024900035D00E2E3AF0E0E832D091505040E6951B
:1024A000001CCAF72BD0FE2F29D0660F771F881F7C
:1024B000BB1F261737074807AB07B0E809F0BB0B6F
:1024C000802DBF01FF2793585F4F3AF09E3F510583
:1024D00078F00C94FC120C9447135F3FE4F3983EA1
:1024E000D4F3869577956795B795F7959F5FC9F76C
:1024F000880F911D9695879597F90895E1E0660FED
:10250000771F881FBB1F621773078407BA0720F065
:10251000621B730B840BBA0BEE1F88F7E0950895CE
:102520000E942C1388F09F5798F0B92F9927B75124
:10253000B0F0E1F0660F771F881F991F1AF0BA9567
:10254000C9F714C0B13091F00E944613B1E008956C
:102550000C944613672F782F8827B85F39F0B93F5E
:10256000CCF3869577956795B395D9F73EF490951A
:102570008095709561957F4F8F4F9F4F0895E89498
:1025800009C097FB3EF490958095709561957F4FBB
:102590008F4F9F4F9923A9F0F92F96E9BB27939569
:1025A000F695879577956795B795F111F8CFFAF479
:1025B000BB0F11F460FF1BC06F5F7F4F8F4F9F4FAA
:1025C00016C0882311F096E911C0772321F09EE808
:1025D000872F762F05C0662371F096E8862F70E06E
:1025E00060E02AF09A95660F771F881FDAF7880F48
:1025F0009695879597F9089597F99F6780E870E019
:1026000060E008959FEF80EC089500240A94161668
:10261000170618060906089500240A9412161306D0
:10262000140605060895092E0394000C11F488235E
:1026300052F0BB0F40F4BF2B11F460FF04C06F5F7A
:102640007F4F8F4F9F4F089557FD9058440F551F50
:1026500059F05F3F71F04795880F97FB991F61F024
:102660009F3F79F087950895121613061406551F9B
:10267000F2CF4695F1DF08C0161617061806991F07
:10268000F1CF86957105610508940895E894BB27FC
:1026900066277727CB0197F908950E945D1329EDEE
:1026A0003BE54EED5EE30C94A51316F00C9412146A
:1026B0000C94021368940C94FC120E942C13A8F33F
:1026C0009923C1F3AEF3DF93CF931F930F93FF9240
:1026D000C92FDD2788232AF02197660F771F881FCF
:1026E000DAF720E030E040E85FEB9FE3883920F044
:1026F000803E38F021968F770E94B211E8E6F0E034
:1027000004C00E94B211E5E9F0E00E9420148B01A0
:10271000BE01EC01FB2E6F5771097595771F880B71
:10272000990B0E94C11228E132E741E35FE30E9466
:10273000B813AF2D9801AE01FF900F911F91CF916B
:10274000DF910E94C9110C9413130E94B8130C94CA
:1027500013130E94051338F00E940C1320F09523E8
:1027600011F00C94FC120C94021311240C944713D6
:102770000E94241370F3959FC1F3950F50E0551FED
:10278000629FF001729FBB27F00DB11D639FAA27C6
:10279000F00DB11DAA1F649F6627B00DA11D661F15
:1027A000829F2227B00DA11D621F739FB00DA11D36
:1027B000621F839FA00D611D221F749F3327A00DF0
:1027C000611D231F849F600D211D822F762F6A2F8C
:1027D00011249F5750409AF0F1F088234AF0EE0FF1
:1027E000FF1FBB1F661F771F881F91505040A9F71E
:1027F0009E3F510580F00C94FC120C9447135F3FF0
:10280000E4F3983ED4F3869577956795B795F79559
:10281000E7959F5FC1F7FE2B880F911D96958795D1
:1028200097F908959F3F31F0915020F4879577955F
:102830006795B795880F911D9695879597F9089597
:10284000DF93CF931F930F93FF92EF92DF927B0161
:102850008C01689406C0DA2EEF010E94B813FE01C5
:10286000E894A5912591359145915591A6F3EF01F5
:102870000E94C911FE019701A801DA9469F7DF905F
:10288000EF90FF900F911F91CF91DF910895A1E2FA
:102890001A2EAA1BBB1BFD010DC0AA1FBB1FEE1FDA
:1028A000FF1FA217B307E407F50720F0A21BB30B25
:1028B000E40BF50B661F771F881F991F1A9469F7A1
:1028C00060957095809590959B01AC01BD01CF01FD
:1028D00008950E947A14A59F900DB49F900DA49F17
:1028E000800D911D11240895EE0FFF1F0590F491A6
:1028F000E02D0994A29FB001B39FC001A39F700D6A
:10290000811D1124911DB29F700D811D1124911DF7
:10291000089510E0CBEBD0E004C0FE010E947414D7
:102920002196CC3BD107C9F7F894FFCF7D037D03F7
:102930000101010100000040001400540000FF01EB
:1029400000010000FFFF0000010001FF00000F1365
:102950001D0000100804020100100804020100001C
:102960000000000000100804030001020404081025
:10297000001804020100000000000E0A0A0A0A1BE7
:10298000001C10181704060400000000003B040E91
:10299000045205E4030704F403E5030000000020EB
:0829A000071701520551050063
:103800000C94341C0C94511C0C94511C0C94511CA1
:103810000C94511C0C94511C0C94511C0C94511C74
:103820000C94511C0C94511C0C94511C0C94511C64
:103830000C94511C0C94511C0C94511C0C94511C54
:103840000C94511C0C94511C0C94511C0C94511C44
:103850000C94511C0C94511C0C94511C0C94511C34
:103860000C94511C0C94511C11241FBECFEFD4E0BA
:10387000DEBFCDBF11E0A0E0B1E0E4EAFFE302C0AB
:1038800005900D92A230B107D9F712E0A2E0B1E0A5
:1038900001C01D92AD30B107E1F70E94361D0C94B6
:1038A000D01F0C94001C982F9595959595959595FE
:1038B000905D8F708A307CF0282F295A8091C0004B
:1038C00085FFFCCF9093C6008091C00085FFFCCFA0
:1038D0002093C6000895282F205DF0CF982F809167
:1038E000C00085FFFCCF9093C6000895EF92FF9231
:1038F0000F931F93EE24FF2487018091C00087FD62
:1039000017C00894E11CF11C011D111D81E4E8168B
:1039100082E4F8068FE0080780E0180770F3E09172
:103920000401F091050109958091C00087FFE9CF5E
:103930008091C6001F910F91FF90EF9008950E9413
:10394000761C982F8091C00085FFFCCF9093C60015
:1039500091362CF490330CF09053892F089597559D
:10396000892F08951F930E949F1C182F0E949F1C4F
:103970001295107F810F1F910895882351F0982F81
:1039800091508091C00087FFFCCF8091C6009923A1
:10399000B9F708951F93182F0E94761C803249F0C2
:1039A000809103018F5F809303018530C1F01F91E7
:1039B00008958091C00085FFFCCF84E18093C6000C
:1039C0008091C00085FFFCCF1093C6008091C0009D
:1039D00085FFFCCF80E18093C6001F910895E091A0
:1039E0000401F091050109951F9108950E94761C2C
:1039F000803241F0809103018F5F80930301853015
:103A000081F008958091C00085FFFCCF84E1809310
:103A1000C6008091C00085FFFCCF80E18093C60086
:103A20000895E0910401F09105010995089510921F
:103A30000A028823D1F090E040E951E02D9A28EE67
:103A400033E0FA013197F1F721503040D1F72D984A
:103A500028EE33E0FA013197F1F721503040D1F7E9
:103A60009F5F981758F380930A0208953F924F92F0
:103A70005F926F927F928F929F92AF92BF92CF92FE
:103A8000DF92EF92FF920F931F93CF93DF9300008B
:103A900083E38093C4001092C50088E18093C10045
:103AA00086E08093C2005098589A259A81E00E943F
:103AB000171D44E1F42E3EE1E32E24E9D22E96E0D8
:103AC000C92E80E1B82EAA24A39401E4902E16E515
:103AD000812EB2E57B2EA0E26A2EF9E45F2EE3E5AB
:103AE0004E2E70E5372E0E94761C8033B1F1813363
:103AF00009F441C0803409F479C0813409F48CC0E0
:103B0000823471F1853409F47BC0803531F182351E
:103B100021F1813511F1853509F48DC0863509F41F
:103B20009DC0843609F4AEC0843709F41BC18537C3
:103B300009F485C1863709F47AC0809103018F5F4B
:103B400080930301853079F6E0910401F09105013D
:103B500009950E94761C803351F60E94F61CC3CF53
:103B600093E18091C00087FFFCCF8091C60099232C
:103B7000A1F39150F6CF0E94761C8032F1F680912D
:103B8000C00085FFFCCFF092C6008091C00085FF89
:103B9000FCCF9092C6008091C00085FFFCCF809240
:103BA000C6008091C00085FFFCCF7092C600809156
:103BB000C00085FFFCCF6092C6008091C00085FFE9
:103BC000FCCF5092C6008091C00085FFFCCF409290
:103BD000C6008091C00085FFFCCF3092C600809166
:103BE000C00085FFFCCFB092C6007DCF0E94761C3E
:103BF000863808F4B2CF0E94761C0E94F61C73CF60
:103C000094E08091C00087FFFCCF8091C60099238B
:103C100009F4A3CF9150F5CF0E94761C8038D1F0E3
:103C2000813861F1823809F499C0883979F080E0EF
:103C30000E94CA1C58CF0E94761C809306010E94E5
:103C4000761C809307010E94F61C4DCF83E00E94F2
:103C5000CA1C49CF82E00E94CA1C45CF0E94761C34
:103C6000803309F486C192E08091C00087FFFCCFC9
:103C70008091C6009923D9F29150F6CF81E00E943D
:103C8000CA1C31CF0E94761C809309020E94761CC8
:103C90008093080280910C028E7F80930C020E9418
:103CA000761C853429F480910C02816080930C028B
:103CB0008091080290910902892B89F000E010E0C0
:103CC0000E94761CF801E85FFE4F80830F5F1F4F54
:103CD00080910802909109020817190788F30E9441
:103CE000761C803209F029CF80910C0280FFD1C070
:103CF0004091060150910701440F551F5093070151
:103D000040930601A0910802B09109021097C9F0F2
:103D1000E8E0F1E09A01BD016E0F7F1FF999FECF37
:103D200032BD21BD819180BDFA9AF99A2F5F3F4F34
:103D3000E617F70799F74A0F5B1F50930701409367
:103D400006018091C00085FFFCCFF092C6008091F3
:103D5000C00085FFFCCFB092C600C5CE80E10E94B6
:103D6000CA1CC1CE0E94761C809309020E94761C58
:103D7000809308028091060190910701880F991F96
:103D800090930701809306010E94761C853409F404
:103D90007AC080910C028E7F80930C020E94761C68
:103DA000803209F0A0CE8091C00085FFFCCFF09258
:103DB000C600A0910802B09109021097B9F1809154
:103DC0000C02182F1170082F0270E0910601F0917B
:103DD00007019F012F5F3F4FB90140E050E01123E1
:103DE000B1F4002339F494918091C00085FFFCCF99
:103DF0009093C6004F5F5F4FCB010196F9014A17C0
:103E00005B0780F4BC012F5F3F4F112351F3F999F9
:103E1000FECFF2BDE1BDF89A90B58091C00085FF5C
:103E2000FCCFE6CF70930701609306018091C0003C
:103E300085FDD9CE8091C00085FFF8CFD4CE0E94F9
:103E4000761C803209F079CE8091C00085FFFCCFCE
:103E5000F092C6008091C00085FFFCCFE092C600C2
:103E60008091C00085FFFCCFD092C6008091C00039
:103E700085FFFCCFC092C6008091C00085FFFCCFBB
:103E8000B092C60030CE80910C02816080930C020B
:103E900085CF809107018823880F880B8A21809322
:103EA0000B028091060190910701880F991F909352
:103EB0000701809306018091080280FF09C080916C
:103EC00008029091090201969093090280930802DA
:103ED000F894F999FECF1127E0910601F0910701BE
:103EE000C8E0D1E08091080290910902103091F46D
:103EF0000091570001700130D9F303E0009357009F
:103F0000E8950091570001700130D9F301E1009369
:103F10005700E89509901990009157000170013001
:103F2000D9F301E000935700E8951395103498F009
:103F300011270091570001700130D9F305E000937B
:103F40005700E8950091570001700130D9F301E165
:103F500000935700E8953296029709F0C7CF1030CA
:103F600011F00296E5CF11248091C00085FFE9CEC3
:103F7000ECCE0E94761C0E94761C182F0E94761CA4
:103F8000112351F0113021F086E00E94CA1CABCD04
:103F900084E90E94CA1CA7CD8EE10E94CA1CA3CD51
:063FA000F894FFCF800041
:00000001FF
