:020000040000FA
:100000000C94BC000C943A0A0C94130A0C94E4006F
:100010000C94E4000C94E4000C94E4000C94E400D0
:100020000C94E4000C94E4000C94E4000C94E400C0
:100030000C94E4000C94E4000C94E4000C94E400B0
:100040000C94C9090C94E4000C94E4000C94E400B2
:100050000C94E4000C94E4000C94E4000C94E40090
:100060000C94610A0C94E40008000000BE9224493C
:10007000123EABAAAA2ABECDCCCC4C3E00000080DA
:10008000BEABAAAAAA3E00000000BF000000803F4D
:100090000000000000084178D3BB4387D1133D190D
:1000A0000E3CC3BD4282AD2B3E68EC8276BED98F3A
:1000B000E1A93E4C80EFFFBE01C4FF7F3F0000007E
:1000C0000000537765657000487A00663D000000C7
:1000D0000000250028002B0000000000230026005F
:1000E00029000000000800020100000304070000CE
:1000F00000000000000000000000240027002A008B
:1001000001020408102040800102040810200102AE
:10011000040810200404040404040404020202027B
:100120000202030303030303526573657420746FB3
:100130002064656661756C74004572726F723A4333
:10014000524320454550524F4D002D53686167671B
:1001500079446F6720323032302D005369676E6109
:100160006C2047656E657261746F7200436823008E
:100170002F320000800B651111241FBECFEFD4E099
:10018000DEBFCDBF11E0A0E0B1E0E8E2F9E202C0DD
:1001900005900D92AA37B107D9F722E0AAE7B1E09E
:1001A00001C01D92AE3CB207E1F710E0CBEBD0E00E
:1001B00004C02197FE010E947214CA3BD107C9F7FF
:1001C0000E94F00B0C9487140C940000882389F093
:1001D000EFEFE80FF0E06AE070E080E090E0FE17FB
:1001E00060F4AAE0B0E09B01AC010E946714FF5FDD
:1001F000F6CF61E070E080E090E00895EAE4F2E09C
:100200008FEF31E392E0E735F90771F0919198278C
:1002100028E0892F880F97FF03C0990F892F832724
:100220002150982FB1F7EECF089508950895AF9219
:10023000BF92CF92DF92EF92FF920F931F93CF93D3
:10024000DF936C017B018B01040F151FEB015E0135
:10025000AE18BF08C017D10759F06991D601ED91CA
:10026000FC910190F081E02DC6010995892B79F769
:10027000C501DF91CF911F910F91FF90EF90DF901B
:10028000CF90BF90AF900895833081F028F48130F3
:1002900099F08230A9F008958730A9F08830C9F02C
:1002A0008430B1F4809180008F7D03C08091800004
:1002B0008F7780938000089584B58F7784BD0895EB
:1002C00084B58F7DFBCF8091B0008F778093B00095
:1002D00008958091B0008F7DF9CFCF93DF93282FC1
:1002E00030E0F901EE51FF4F8491F901E050FF4FEA
:1002F000D491F901EC5EFE4FC491CC23A1F08111A1
:100300000E944401EC2FF0E0EE0FFF1FE852FF4F78
:10031000A591B491EC91ED2381E090E009F480E0A7
:10032000DF91CF91089580E090E0FACF1F93CF93B3
:10033000DF93282F30E0F901EE51FF4F8491F9014E
:10034000E050FF4FD491F901EC5EFE4FC491CC23F5
:10035000A9F0162F81110E944401EC2FF0E0EE0F5E
:10036000FF1FE253FF4FA591B4918FB7F894EC9122
:10037000111108C0D095DE23DC938FBFDF91CF91A0
:100380001F910895DE2BF8CF1F93CF93DF93EC01DD
:1003900080918902882309F452C0809159028823F0
:1003A00061F08FB7F894909159029130B9F59DB3EF
:1003B000909358029DB39DBB8FBF88E58CBD81E0B3
:1003C0008DBD60E0809188020E9496019C2F8D2F48
:1003D0000CB405FC26C0DEBD00000DB407FEFDCF49
:1003E0008EB59EBD00000DB407FEFDCF8EB561E059
:1003F000809188020E94960180915902882351F0D1
:100400009FB7F89420915902809158022130A9F4A5
:100410008DBB9FBFDF91CF911F91089580935802AC
:10042000CCCFCEBD00000DB407FEFDCF9EB58EBD76
:1004300000000DB407FEFDCFD9CF8FBFEBCF60E03A
:10044000809188020E94960110E16D2F661F662739
:10045000661F809186020E94960160E0809187026B
:100460000E94960161E0809187020E949601CC0F64
:10047000DD1F115051F760E0809186020E949601C5
:1004800061E080918802DF91CF911F910C949601D9
:1004900090937902809378022091660230916702EE
:1004A00082309105E1F068F40097B9F02D7D019755
:1004B00079F080916602909167020E94C40181E008
:1004C00008958430910589F068F02F73059789F7B6
:1004D0003093670220936602ECCF206CF9CF2D7F1A
:1004E0002862F6CF257F2062F3CF2F7D2260F0CFE8
:1004F000EF92FF920F931F93CF93DF93EC01CB0109
:10050000BA01FE01EE0FFF1FEE0FFF1FE658FD4F71
:1005100060837183828393838E01000F111F000F0C
:10052000111F98012A593D4F790120E030E040E841
:100530005DE40E94A31320E23CEB4EEB5BE40E94DF
:100540001C1220E030E040E05FE30E94B0110E9406
:100550008E12F7016283738384839583219759F107
:10056000C0E0D0E480916602909167020E94C401CD
:100570000A591D4FF801828193819F738C2B9D2B0B
:100580000E94C401F80182819381A481B5812EE08B
:10059000B695A795979587952A95D1F79F738C2B3C
:1005A0009D2B0E94C40181E0DF91CF911F910F919B
:1005B000FF90EF900895C0E0D0E8D4CFCF93DF93C1
:1005C00090E0FC01E050FF4F24918C5E9E4FFC01B7
:1005D00084918823C9F090E0880F991FFC01EA50AC
:1005E000FF4FA591B491FC01E253FF4FC591D49107
:1005F00061110DC09FB7F8948C91209582238C9344
:100600008881282328839FBFDF91CF91089562308E
:1006100051F49FB7F8943C91822F809583238C935B
:10062000E8812E2BEFCF8FB7F894EC912E2B2C93E3
:100630008FBFEACF3FB7F894809131029091320298
:10064000A0913302B091340226B5A89B05C02F3F7C
:1006500019F00196A11DB11D3FBFBA2FA92F982FE8
:100660008827BC01CD01620F711D811D911D42E0E3
:10067000660F771F881F991F4A95D1F708958F92AB
:100680009F92AF92BF92CF92DF92EF92FF924B0177
:100690005C010E941A036B017C010E941A036C1911
:1006A0007D098E099F09683E734081059105A8F375
:1006B00021E0821A9108A108B10888EEC80E83E0F3
:1006C000D81EE11CF11C81149104A104B10429F786
:1006D000FF90EF90DF90CF90BF90AF909F908F9062
:1006E00008952FB7F89460912D0270912E02809199
:1006F0002F02909130022FBF089508952091E201BA
:10070000260F3327331F21323105ECF420910602E6
:10071000FC0190E080E0243069F082E00895A0912F
:10072000E2012191AC014E535E4FA40FB52FB11DD4
:100730002C930196861798F38091E201680F6093DD
:10074000E20180E0089581E008951092060281E0C0
:10075000809308021092070261E082E10E949601F4
:1007600061E083E10E949601E9EBF0E080818E7FF9
:10077000808380818D7F808388E48093B80085E4C6
:100780008093BC000895CF93DF9391E09093C101D3
:100790008823B9F0C091B800D091BA008091BC0014
:1007A0008A7B8093BC0060E082E10E94960160E059
:1007B00083E10E9496010E94A503D093BA00C093E2
:1007C000B800DF91CF9108950895E0913C028091A7
:1007D0003B02E81730F4F0E0E456FE4F808190E0F1
:1007E00008958FEF9FEF089590913C0280913B0216
:1007F0002FEF3FEF981748F4E92FF0E0E456FE4F53
:10080000208130E09F5F90933C02C9010895809160
:100810003B0290913C02891B990B0895CF92DF9285
:10082000EF92FF920F931F93CF93DF937C01CB0145
:100830008A0120919B01222389F0EB016B01C40EF8
:10084000D51ECC15DD0569F06991D701ED91FC91BC
:100850000190F081E02DC7010995F3CF642F0E942C
:100860007E03C801DF91CF911F910F91FF90EF9010
:10087000DF90CF900895CF93DF931F92CDB7DEB76F
:10088000698320919B012223F9F0209139022032C3
:1008900058F021E030E0FC013383228390E080E0D7
:1008A0000F90DF91CF91089580913A02E82FF0E008
:1008B000E558FE4F998190838F5F80933A02809331
:1008C000390281E090E0ECCF61E0CE0101960E9418
:1008D0007E03F7CFCF92DF92EF92FF920F931F9399
:1008E000CF93DF93FC01C48121E020939B01C0934F
:1008F0007A0110923A02109239028385682B8AE5B8
:1009000092E00E943B04D0913902D13208F092C0AB
:100910000E941A036B017C0180910602811165C05F
:1009200082E08093060281E0809308028FEF80933B
:10093000050210922A02D0932902ABE7B1E0E9E068
:10094000F2E080E0D81385C010922B0280912B0238
:10095000CC0FC82BC0932B0280910702813009F085
:100960007CC0109207020E941A036B017C018091E7
:100970002B028093BB008091BD019091BE01A0919C
:10098000BF01B091C001892B8A2B8B2B99F00E945B
:100990001A030091BD011091BE012091BF01309159
:1009A000C0016C197D098E099F09061717072807D2
:1009B0003907E0F18091BC0083FDD9CF85EC8093AD
:1009C000BC000E941A036B017C01809106028230F8
:1009D00009F445C0809105028F3F61F180910502C5
:1009E000803241F18091050225C08091BD01909136
:1009F000BE01A091BF01B091C001892B8A2B8B2B26
:100A000009F48ACF0E941A030091BD011091BE0122
:100A10002091BF013091C0016C197D098E099F0999
:100A2000061717072807390708F076CF8091BC0111
:100A30000E94C30310923A021092390210929B0155
:100A4000DF91CF911F910F91FF90EF90DF90CF90AA
:100A500008959D9191938F5F75CF85EEB0CF809172
:100A6000BD019091BE01A091BF01B091C001892B41
:100A70008A2B8B2B09F4A9CF0E941A030091BD0188
:100A80001091BE012091BF013091C0016C197D0908
:100A90008E099F09061717072807390708F095CF11
:100AA000C5CF089590E080E00895209166023091CE
:100AB00067028823C9F0C901986090936702809308
:100AC00066020E94C40180914E0290914F02A09153
:100AD0005002B09151028093410290934202A09340
:100AE0004302B09344020895C901977F909367022F
:100AF000809366020E94C40180914A0290914B0249
:100B0000A0914C02B0914D02E6CF813051F028F017
:100B1000823051F0833059F0089581E090E00C94D8
:100B2000480284E090E0FBCF82E090E0F8CF83E0E1
:100B300090E0F5CFCF93DF93CAE4D2E0688179816A
:100B40008A819B810E94BD12AB01BC0190E080E0D4
:100B50000E9478026C817D818E819F810E94BD12EE
:100B6000AB01BC0181E090E00E947802EA85F0E0F0
:100B7000E65BFD4F80850E9485058A85DF91CF91D8
:100B80000C945505CF938091AB020E946D01C82F44
:100B90008091AC020E946D01880F990BC82B809147
:100BA000AD02C81709F45DC0E091AD024091AE02FC
:100BB0005091AF026091B0027091B10284E0E802FE
:100BC000F00111248C2F0C2E000C990BE82BF92B23
:100BD000E15FFE4F9081892F990F990BAA0BBB0BF8
:100BE000840F951FA61FB71F8093AE029093AF028C
:100BF000A093B002B093B102C33089F58091AE02E8
:100C00009091AF02A091B002B091B10222E0B595EF
:100C1000A795979587952A95D1F78093B2029093DF
:100C2000B302A093B402B093B5028091BA0290913E
:100C3000BB02A091BC02B091BD028093BE02909312
:100C4000BF02A093C002B093C1020E9471036093DF
:100C5000BA027093BB028093BC029093BD02C09312
:100C6000AD02CF9108950F931F93CF938C01C62FA0
:100C70000E946A046C2F6460C8010E946A046C2F91
:100C80006B7FC8010E946A0483EC90E00197F1F742
:100C9000CF911F910F9108950F931F93CF93DF93DF
:100CA0008C01D62FC42F607F642B0E94330680E115
:100CB000D89FB00111246C2BC801DF91CF911F91F7
:100CC0000F910C94330640E0682F82EC92E00C9474
:100CD0004C0681E00E9463068BE39FE10197F1F7E8
:100CE0000895EAE4F2E084858F5F8370848781E071
:100CF000809306010C946906CF93DF93CDB7DEB7DE
:100D000028970FB6F894DEBF0FBECDBF98E0E7E09E
:100D1000F1E0DE01119601900D929A95E1F7909124
:100D2000CB02961708F46FEF70E0660F771F21E093
:100D300030E02C0F3D1F620F731FFB019081890F64
:100D4000806828960FB6F894DEBF0FBECDBFDF9146
:100D5000CF910C946306E2ECF2E08681982F9260CA
:100D600096838A600C946306E82FF0E0E15EFE4F04
:100D7000808160E0803110F0805161E00E947C064B
:100D80000C94AB0681E080933F0210924002E2ECAB
:100D9000F2E086818E7F868388600E94630660E031
:100DA00080E00E947C060C94AB0620913F0221302B
:100DB00031F008F44DC0223009F440C008959091FC
:100DC0004002913079F040F09230D9F0933049F1FF
:100DD00081E080930601089582E080933F020E94A3
:100DE000AB06F6CF809105019827909305019111EC
:100DF00005C090E080E00E944802EACF85E090E0E4
:100E0000FACF809154028227809354020E945505A4
:100E1000E0915402F0E0E65BFD4F80850E9485057D
:100E2000D7CFE0915402F0E0E65BFD4F80858F5F05
:100E3000843011F08087F1CF1086EFCF80913E0291
:100E4000873024F48F5F80933E02089510923E0213
:100E50000C94C20680913F02813019F0823041F03B
:100E6000089510923F021092400280930401089569
:100E70000C94C20641E00E944C0681E090E0089587
:100E80000F931F93CF93DF938B0128E0829FC001C4
:100E9000112480640E946306E801085F1F4F699176
:100EA00082EC92E00E943A07C017D107C1F7DF91A8
:100EB000CF911F910F91089541E0682F82EC92E04D
:100EC0000E944C0681E090E008950F931F93CF930A
:100ED000DF938C01D0E0C0E0F801EC0FFD1F6491BE
:100EE000662339F041E082EC92E00E944C062196A4
:100EF000F3CFCE01DF91CF911F910F9108958F9283
:100F00009F92AF92BF920F931F93CF93DF93CDB772
:100F1000DEB7A1970FB6F894DEBF0FBECDBF19A202
:100F2000423008F44AE08E010F5D1F4F842E912C51
:100F3000B12CA12CA50194010E944514E62FB90102
:100F4000CA01EA3044F5E05DD801EE938D01232B10
:100F5000242B252B79F790E080E0109769F0FD01B4
:100F600001900020E9F73197AF014A1B5B0BBD01EF
:100F700082EC92E00E941701A1960FB6F894DEBFB2
:100F80000FBECDBFDF91CF911F910F91BF90AF905A
:100F90009F908F900895E95CD7CF4F925F926F92A8
:100FA0007F928F929F92AF92BF92CF92DF92FF92E9
:100FB0000F931F93CF93DF93CDB7DEB728970FB66C
:100FC000F894DEBF0FBECDBF4B015C0160E080E056
:100FD0000E947C068BEC90E00E9465078E010F5FFB
:100FE0001F4FF12C68018AE0482E512C612C712C86
:100FF000C501B401A30192010E944514F801619357
:101000008F0149015A0181149104A104B10421F016
:10101000F394F8E0FF12ECCFAF2CB12C80913E029C
:10102000082E000C990BA816B90614F4F0923E0293
:1010300007E010E090915602892F817091FF46C021
:10104000A016B10644F5882339F0053011F00230BE
:1010500019F480E20E945C0780E20E945C07015064
:10106000110940F788EC90E028960FB6F894DEBF9F
:101070000FBECDBFDF91CF911F910F91FF90DF90F9
:10108000CF90BF90AF909F908F907F906F905F9028
:101090004F900C946507882339F0053081F4F012E5
:1010A00013C080E20E945C07F601E00FF11F60812F
:1010B00070E090E080E04AE00E947F07D0CF0230ED
:1010C00099F7E2E0FE1669F387E2ECCF882339F066
:1010D000053011F0023019F487E20E945C07A01677
:1010E000B10614F780E3B9CF85ED8093BC00809101
:1010F000BD019091BE01A091BF01B091C0010796C2
:10110000A11DB11D23E0B695A795979587952A95C2
:10111000D1F72091BC0024FD03C01092060208956F
:101120004091BD015091BE016091BF017091C0011D
:10113000452B462B472B69F30097A105B10541F0DC
:1011400025E32A95F1F700000197A109B109E1CF44
:101150008091BC010C94C3031F93CF93DF93D82FCE
:10116000C0E018E01092CD0260E082EC92E00E94B4
:101170006A042FEF85EA9EE0215080409040E1F71D
:1011800000C000001093CD0260E082EC92E00E946B
:101190006A042FEF85EA9EE0215080409040E1F7FD
:1011A00000C00000CF5FDC13DDCFDF91CF911F9136
:1011B00008950E94FE00809357024EE050E070E0D8
:1011C00060E08AE492E00C948D114F925F926F92EE
:1011D0007F928F929F92AF92BF92CF92DF92EF92C7
:1011E000FF92CF9380913F028130C1F0823009F0AD
:1011F000BEC080913E0218161CF4815080933E02BE
:10120000CF91FF90EF90DF90CF90BF90AF909F90E5
:101210008F907F906F905F904F90089580914002E3
:10122000823071F7809154028111EACF61E00E940F
:101230007C0682EC90E00E9465078091C802982F9E
:1012400091609093C80289600E94630640904E02AC
:1012500050904F02609050027090510280904A026C
:1012600090904B02A0904C02B0904D027501640129
:1012700080914E0290914F02A0915002B091510284
:10128000481459046A047B04D0F1C816D906EA064A
:10129000FB06D0F5C701B6010E94BD120E944B1398
:1012A0000E948E12862F611181500E94E600481420
:1012B00059046A047B0408F455C0C60ED71EE81E04
:1012C000F91EC701B6010E94BD12AB01BC0190E03E
:1012D00080E00E947802C701B6010E94CD0784E039
:1012E0000E946D01892B81F02FEF84E39CE0215057
:1012F00080409040E1F700C00000A895B9CF8C1560
:101300009D05AE05BF0530F281E0809349028093D0
:1013100006018FB7F894C8E1C09360001092600096
:101320008FBF2FEF8BE792E9215080409040E1F78B
:1013300000C0000061E084E00E947C0680E20E9420
:101340005C078091C8028E7F8093C80288600E94EB
:1013500063068FB7F894C09360009FE0909360009D
:101360008FBF4ECFC61AD70AE80AF90AAACF0E9441
:10137000D90882E0CF91FF90EF90DF90CF90BF909F
:10138000AF909F908F907F906F905F904F900C9454
:10139000AC081F920F920FB60F9211242F933F9318
:1013A0008F939F93AF93BF9380912D0290912E02C4
:1013B000A0912F02B091300230912C0223E0230F34
:1013C0002D3758F50196A11DB11D20932C02809355
:1013D0002D0290932E02A0932F02B09330028091A1
:1013E000310290913202A0913302B0913402019601
:1013F000A11DB11D8093310290933202A09333025C
:10140000B0933402BF91AF919F918F913F912F91F3
:101410000F900FBE0F901F90189526E8230F02968D
:10142000A11DB11DD2CF1F920F920FB60F921124A2
:101430002F933F934F935F936F937F938F939F93DC
:10144000AF93BF93EF93FF93E0910201F0910301FB
:101450000995FF91EF91BF91AF919F918F917F91EE
:101460006F915F914F913F912F910F900FBE0F9011
:101470001F9018951F920F920FB60F9211242F9361
:101480003F934F935F936F937F938F939F93AF930C
:10149000BF93EF93FF93E0910001F0910101099553
:1014A000FF91EF91BF91AF919F918F917F916F913C
:1014B0005F914F913F912F910F900FBE0F901F9012
:1014C00018951F920F920FB60F9211242F933F93EE
:1014D0004F935F936F937F938F939F93AF93BF933C
:1014E000EF93FF938091B900887F803609F44AC05A
:1014F000F0F5883209F4A7C018F5803109F49BC0D3
:10150000B8F4882309F4F9C0883009F494C0FF9135
:10151000EF91BF91AF919F918F917F916F915F916B
:101520004F913F912F910F900FBE0F901F901895E4
:10153000883109F488C0803251F78093050214C0C5
:10154000803409F49DC040F48033B9F38833F9F650
:101550008093050285ECB0C0803509F485C08835DC
:1015600009F496C0883499F60E947408D0CF88395F
:1015700009F48CC038F5883729F050F4883611F01A
:10158000803729F683E0809306021092040257C048
:10159000883809F47BC0803919F0803809F0B7CF5A
:1015A00080910402803208F071C0E091040281E071
:1015B0008E0F809304028091BB00F0E0EC51FE4F4F
:1015C00080833DC0803B39F0E0F4803A09F479C073
:1015D000883A09F09CCF84E0809306021092E301E0
:1015E0001092E201E0913702F09138020995809162
:1015F000E20181110FC081E08093E2011092C201EB
:1016000009C0803C09F4A6CF883C09F4A3CF883BED
:1016100009F07DCFE091E30181E08E0F8093E3013B
:10162000F0E0EE53FE4F80818093BB009091E30188
:101630008091E20129C080912B028093BB0085EC50
:101640008093BC0064CF90912A0280912902981760
:1016500058F5E0912A0281E08E0F80932A02F0E093
:10166000E75FFD4F8081E9CFE0912A0281E08E0F94
:1016700080932A028091BB00F0E0E75FFD4F8083FA
:1016800090912A02809129029817C8F285E8D8CF54
:10169000E0912A0281E08E0F80932A028091BB00A4
:1016A000F0E0E75FFD4F80838091080281115CCFFD
:1016B00081E08093070284EA8093BC0010920602C6
:1016C00026CF85EC8093BC00109206028091040224
:1016D000803230F4E0910402F0E0EC51FE4F1082D1
:1016E0006091040270E0E0913502F091360284EEE0
:1016F00091E00995109204020ACF1092050234CFAE
:101700001F93CF93DF93EAE5F2E01382128288EE13
:1017100093E0A0E0B0E084839583A683B7838FE550
:1017200091E091838083E2ECF2E01382128281E700
:1017300091E0918380838FE3848380E1808782E0DE
:101740008187128698E09387CBEAD2E013E0188372
:10175000898362E083E00E94DE0262E082E00E9410
:10176000DE021A831B821C821D821E821F82188643
:1017700019861A861B861C861D861E86EAE8F2E0FC
:1017800011821082138212821582148217821682AD
:1017900011861086138612861586148682E390E0E1
:1017A000918B808B80E991E0938B828B80E293E038
:1017B000958B848B178E10A284E090E097878687A4
:1017C000168E62E00E94DE02E6E6F2E010A211A2AE
:1017D0008AE082A381E083A3DF91CF911F910895D6
:1017E000789484B5826084BD84B5816084BD85B5FC
:1017F000826085BD85B5816085BD80916E00816008
:1018000080936E00109281008091810082608093AD
:1018100081008091810081608093810080918000AF
:101820008160809380008091B10084608093B100DA
:101830008091B00081608093B00080917A008460D4
:1018400080937A0080917A00826080937A00809100
:101850007A00816080937A0080917A00806880931A
:101860007A001092C10010923C0210923B0210923A
:101870003A02109239020E94A50385E191E090930B
:1018800038028093370286E191E09093360280938C
:1018900035021092C7028091CB02823018F098E096
:1018A0009093C7029091CC02992339F0813029F4AA
:1018B0008091C70284608093C70262E370E080E099
:1018C00090E00E943F036091CD0282EC92E00E9482
:1018D0006A0468EE73E080E090E00E943F0360E3FA
:1018E00082EC92E00E943306CBE4D6E4CE0101976D
:1018F000F1F760E382EC92E00E9433062197F1F762
:1019000060E382EC92E00E94330683E592E0019767
:10191000F1F760E282EC92E00E9433068091C70208
:1019200080620E94630684E08093C8028CE00E947B
:1019300063060E94690682E08093C90286E00E94E5
:10194000630682E00E946306CBE3DFE1CE010197EC
:10195000F1F763E571E080E00E9440076BE471E01D
:1019600081E00E94400763E371E082E00E9440074B
:101970006BE371E083E00E94400763E471E084E080
:101980000E94400763E271E085E00E9440076BE23D
:1019900071E086E00E94400785ED96E090938B020F
:1019A00080938A028AE297E0909393028093920256
:1019B00085EE98E090938D0280938C0281E796E00B
:1019C00090938F0280938E0282E00E94630621979B
:1019D000F1F788E08093CD0260E082EC92E00E9413
:1019E0006A048BE591E00E94650761E080E00E9457
:1019F0007C068AE491E00E9465072FEF3DE389E4CD
:101A0000215030408040E1F700C000008091890201
:101A1000882309F43CC2CFB7F89480913D0281112C
:101A200027C0EEE1F1E08491EAE0F1E09491E82F43
:101A3000F0E0EE0FFF1FEA50FF4FA591B491EC913B
:101A4000E92321F461E08AE00E94960161E08AE0E6
:101A50000E94DE028CB580618CBD8CB580648CBD2B
:101A600061E08DE00E94DE0261E08BE00E94DE0218
:101A700080913D028F5F80933D02CFBF61E08091F6
:101A800088020E94DE0261E0809188020E94960135
:101A900080E090E290936702809366020E94C40106
:101AA00080916602909167029160909367028093A3
:101AB00066020E94C40140E050E06AE774E490E0EE
:101AC00080E00E94780240E050E06AE774E481E040
:101AD00090E00E947802109283021092820210928B
:101AE000700210927102109272021092730280E0E2
:101AF00090EC0E94C4011092850210928402109210
:101B0000740210927502109276021092770280E0B1
:101B100090EE0E94C40180916602909167029160EC
:101B200090936702809366020E94C40180916602CE
:101B3000909167029E7F90936702809366020E9455
:101B4000C40181E090E090937902809378028091C3
:101B50006602909167028D7190936702809366028E
:101B60000E94C4018091660290916702977F9093D2
:101B70006702809366020E94C40180916602909180
:101B800067029B7F90936702809366020E94C40164
:101B90004EE050E070E060E08AE492E00E947D1147
:101BA0000E94FE0090915702891381C10E949A05FC
:101BB000C0E084E00E946D01892B11F0CC23A9F1D3
:101BC00060E080E00E947C0688E291E00E94650768
:101BD00088EE93E0A0E0B0E080934E0290934F0235
:101BE000A0935002B093510280934A0290934B020B
:101BF000A0934C02B0934D021092530210925202E5
:101C0000109255021092540283E0809356020E9473
:101C1000AC080E949A0584E00E946D01892BD9F3DB
:101C20000E946906C1110E94D90822EC35E0309368
:101C300003012093020180916900837F8460809377
:101C40006900E99A309301012093000180916900B5
:101C50008C7F816080936900E89A0E9469068FB743
:101C6000F89498E1909360009FE0909360008FBF9C
:101C700030E0832E30E0932E43E0242E52E0352EC8
:101C800011E060E2462E6CEB562E6EEB662E712C48
:101C900009E0809198029091990297FD1FC00E94DF
:101CA0006D015C01C091A802D0E00E9471036B013C
:101CB0007C018091A0029091A1029601281B390B12
:101CC000C9014091AA02423009F46BC108F00CC16D
:101CD000442309F418C1413009F426C14091B602E9
:101CE0005091B7026091B8027091B9028091B2022E
:101CF0009091B302A091B402B091B50284179507F8
:101D0000A607B7070CF0ABC14091B2025091B302E5
:101D10006091B4027091B5028091B6029091B702C1
:101D2000A091B802B091B9020197A109B109481771
:101D300059076A077B070CF490C19FEF4091B202EC
:101D40005091B3026091B4027091B5024093B60213
:101D50005093B7026093B8027093B90280913F022A
:101D6000813009F419C2823009F41FC280914902FE
:101D7000882391F10E947103C0904502D0904602E1
:101D8000E0904702F09048026C197D098E099F0986
:101D90006139714081059105F8F0C091540260915C
:101DA0004102709142028091430290914402D0E03E
:101DB000FE01EE0FFF1FEE0FFF1FE65BFD4F60837E
:101DC0007183828393830E94BD12AB01BC01CE015B
:101DD0000E9478021092490280910601882309F43A
:101DE00046C06091410270914202809143029091FD
:101DF00044020E94CD07C09105018091560260E027
:101E000080FFF5C18FE00E947C068EE7C11101C002
:101E10008BED0E945C07C091540261E080E00E945B
:101E20007C068CE691E00E9465076C2F70E090E0E4
:101E300080E04AE00E947F07E0915402F0E0E65B18
:101E4000FD4FC08561E08DE00E947C06C13009F441
:101E5000EDC108F4DBC1C23009F4F2C1C33009F4AA
:101E6000FBC1809140020E94B4061092060180914D
:101E70003F02882309F4FAC1823009F414C2A895FC
:101E80008114910409F405CF0E94000001CF61E0A4
:101E9000809186020E94DE0260E0809187020E94AB
:101EA000960161E0809187020E94DE02E7CD60E04A
:101EB00080E00E947C0689E391E00E94650761E072
:101EC00080E00E947C0688E291E00E9465079FEF17
:101ED0002BE732E9915020403040E1F700C000008C
:101EE0000E946906C1E065CE433009F498C04430D1
:101EF00009F0F4CEAC16BD0609F0A5C0E09196023B
:101F0000F091970249C0AC16BD0609F0E7CE1093D8
:101F1000AA02C092A002D092A102E092A202F09284
:101F2000A3021092A902DACEAC16BD06E9F4209104
:101F30009E0230919F022817390708F0CFCE4093B8
:101F4000A902E0919202F0919302309709F009956D
:101F500034E03093AA02C092A402D092A502E0928B
:101F6000A602F092A702BACE20919A0230919B026B
:101F70008217930718F41092AA02B0CE3092AA02E8
:101F8000C092A402D092A502E092A602F092A7020B
:101F9000E0919002F0919102309709F49FCE09955B
:101FA0009DCE20919C0230919D0228173907C8F4DC
:101FB0008091A9028F5F8093A902E0918A02F0913B
:101FC0008B02813051F0E0918C02F0918D028230D1
:101FD00021F0E0918E02F0918F02309761F2099525
:101FE000CACFAC16BD0609F079CE8091A4029091BB
:101FF000A5029601281B390B80919A0290919B02B1
:102000008217930708F06ACE2092AA02C092A0021B
:10201000D092A102E092A202F092A3025FCEAC168F
:10202000BD0609F45BCE20919A0230919B022817DD
:10203000390708F053CE8091A9028F5F8093A902DF
:102040003092AA0288CFE0919402F09195023097E5
:1020500009F009951092AA027ECF9EEF6FCE4091B3
:10206000B6025091B7026091B8027091B9028091A6
:10207000B2029091B302A091B402B091B502481798
:1020800059076A077B070CF071CE4091B20250915C
:10209000B3026091B4027091B5028091B602909142
:1020A000B702A091B802B091B9020196A11DB11D6D
:1020B00084179507A607B7070CF45AC091E0409122
:1020C000B2025091B3026091B4027091B502409394
:1020D000B6025093B7026093B8027093B902809130
:1020E0003F02813009F449C008F444C0823009F04D
:1020F0003DCE80913E02C0904102D0904202E090DD
:102100004302F0904402923009F48F5F0E94E6008F
:10211000C60ED71EE81EF91EC0924102D09242029E
:10212000E0924302F0924402809141029091420277
:10213000A0914302B091440281329C4BAE4BB10559
:1021400040F04092410250924202609243027092EB
:1021500044020E947103609345027093460280938B
:102160004702909348021093490210930601FECD56
:1021700092E0A5CF0E94C206F9CD809140028F5F08
:10218000843019F08093400202C010924002809186
:1021900040020E94B406EACD80914002811103C042
:1021A00020924002F4CF8150EDCF80913E02C0904A
:1021B0004102D0904202E0904302F09044029E3FE0
:1021C00009F48F5F0E94E6006C157D058E059F0562
:1021D00008F0CCCDC61AD70AE80AF90AC092410223
:1021E000D0924202E0924302F0924402B2CF8EE0DB
:1021F0000E947C068FE40E945C078EE4C11109CE28
:1022000060E082EC92E00E943A0705CE62E082EC48
:1022100092E00E943A0763E082EC92E00E943A0763
:1022200064E082EC92E00E943A071BCE65E082EC0B
:1022300092E00E943A078FE20E945C0766E0F1CFCD
:1022400061E082EC92E00E943A0761E082EC92E069
:102250000E943A0761E0E5CF61E082EC92E00E94E3
:102260003A0780E791E00E946507FBCD8091040169
:10227000882309F404CE60E080E00E947C0680910F
:10228000C8028D7F8093C80288600E946306809197
:10229000C802982F91609093C80289600E946306DB
:1022A00010920401ECCD90913E028091560280FF85
:1022B00006C08BE0933024F08AE096300CF0802F3B
:1022C000891B60E00E947C06DACD80918902882318
:1022D00099F09FB7F89480913D02882319F08150BE
:1022E00080933D0280913D02811105C08CB58F7BAA
:1022F0008CBD109259029FBF0895DC01CB01FC01F7
:10230000F999FECF06C0F2BDE1BDF89A319600B44E
:102310000D9241505040B8F70895DC01A40FB51F4D
:102320004150504048F0CB01840F951F2E910E94E0
:102330009E1141505040D0F70895262FF999FECFB5
:1023400092BD81BDF89A019700B4021639F01FBA08
:1023500020BD0FB6F894FA9AF99A0FBE0895505816
:10236000BB27AA270E94C7110C9411130E940313C4
:1023700038F00E940A1320F039F49F3F19F426F434
:102380000C9400130EF4E095E7FB0C94FA12E92F7D
:102390000E94221358F3BA17620773078407950740
:1023A00020F079F4A6F50C9444130EF4E0950B2E6E
:1023B000BA2FA02D0B01B90190010C01CA01A00197
:1023C0001124FF27591B99F0593F50F4503E68F1F2
:1023D0001A16F040A22F232F342F4427585FF3CF33
:1023E000469537952795A795F0405395C9F77EF404
:1023F0001F16BA0B620B730B840BBAF09150A1F04D
:10240000FF0FBB1F661F771F881FC2F70EC0BA0FD2
:10241000621F731F841F48F4879577956795B7955A
:10242000F7959E3F08F0B0CF9395880F08F0992755
:10243000EE0F9795879508950E9430120C94111312
:102440000E940A1358F00E94031340F029F45F3FE2
:1024500029F00C94FA1251110C9445130C940013AA
:102460000E94221368F39923B1F3552391F3951B2E
:10247000550BBB27AA2762177307840738F09F5FA5
:102480005F4F220F331F441FAA1FA9F335D00E2E12
:102490003AF0E0E832D091505040E695001CCAF77F
:1024A0002BD0FE2F29D0660F771F881FBB1F261742
:1024B00037074807AB07B0E809F0BB0B802DBF0119
:1024C000FF2793585F4F3AF09E3F510578F00C94E8
:1024D000FA120C9445135F3FE4F3983ED4F38695CB
:1024E00077956795B795F7959F5FC9F7880F911D09
:1024F0009695879597F90895E1E0660F771F881FF5
:10250000BB1F621773078407BA0720F0621B730BA7
:10251000840BBA0BEE1F88F7E09508950E942A13EA
:1025200088F09F5798F0B92F9927B751B0F0E1F094
:10253000660F771F881F991F1AF0BA95C9F714C044
:10254000B13091F00E944413B1E008950C9444130B
:10255000672F782F8827B85F39F0B93FCCF386957D
:1025600077956795B395D9F73EF4909580957095DA
:1025700061957F4F8F4F9F4F0895E89409C097FB57
:102580003EF490958095709561957F4F8F4F9F4F4A
:102590009923A9F0F92F96E9BB279395F69587958E
:1025A00077956795B795F111F8CFFAF4BB0F11F451
:1025B00060FF1BC06F5F7F4F8F4F9F4F16C08823F8
:1025C00011F096E911C0772321F09EE8872F762F2E
:1025D00005C0662371F096E8862F70E060E02AF06F
:1025E0009A95660F771F881FDAF7880F969587955B
:1025F00097F9089597F99F6780E870E060E0089583
:102600009FEF80EC089500240A941616170618060A
:102610000906089500240A941216130614060506E6
:102620000895092E0394000C11F4882352F0BB0F77
:1026300040F4BF2B11F460FF04C06F5F7F4F8F4FDA
:102640009F4F089557FD9058440F551F59F05F3F15
:1026500071F04795880F97FB991F61F09F3F79F0C4
:1026600087950895121613061406551FF2CF469546
:10267000F1DF08C0161617061806991FF1CF8695C8
:102680007105610508940895E894BB2766277727AC
:10269000CB0197F908950E945B1329ED3BE54EEDC0
:1026A0005EE30C94A31316F00C9410140C94001316
:1026B00068940C94FA120E942A13A8F39923C1F388
:1026C000AEF3DF93CF931F930F93FF92C92FDD27B4
:1026D00088232AF02197660F771F881FDAF720E0FA
:1026E00030E040E85FEB9FE3883920F0803E38F02F
:1026F00021968F770E94B011E8E6F0E004C00E94B6
:10270000B011E5E9F0E00E941E148B01BE01EC015E
:10271000FB2E6F5771097595771F880B990B0E94D7
:10272000BF1228E132E741E35FE30E94B613AF2D09
:102730009801AE01FF900F911F91CF91DF910E9400
:10274000C7110C9411130E94B6130C9411130E941C
:10275000031338F00E940A1320F0952311F00C9413
:10276000FA120C94001311240C9445130E942213A6
:1027700070F3959FC1F3950F50E0551F629FF001D4
:10278000729FBB27F00DB11D639FAA27F00DB11DED
:10279000AA1F649F6627B00DA11D661F829F222776
:1027A000B00DA11D621F739FB00DA11D621F839FFD
:1027B000A00D611D221F749F3327A00D611D231FD3
:1027C000849F600D211D822F762F6A2F11249F5721
:1027D00050409AF0F1F088234AF0EE0FFF1FBB1F24
:1027E000661F771F881F91505040A9F79E3F5105E3
:1027F00080F00C94FA120C9445135F3FE4F3983E7A
:10280000D4F3869577956795B795F795E7959F5F8C
:10281000C1F7FE2B880F911D9695879597F908951E
:102820009F3F31F0915020F4879577956795B79544
:10283000880F911D9695879597F90895DF93CF930B
:102840001F930F93FF92EF92DF927B018C016894AC
:1028500006C0DA2EEF010E94B613FE01E894A5919E
:102860002591359145915591A6F3EF010E94C7112D
:10287000FE019701A801DA9469F7DF90EF90FF90CD
:102880000F911F91CF91DF910895A1E21A2EAA1BFB
:10289000BB1BFD010DC0AA1FBB1FEE1FFF1FA21710
:1028A000B307E407F50720F0A21BB30BE40BF50B0D
:1028B000661F771F881F991F1A9469F76095709596
:1028C000809590959B01AC01BD01CF0108950E94B8
:1028D0007814A59F900DB49F900DA49F800D911D1D
:1028E00011240895EE0FFF1F0590F491E02D099437
:1028F000A29FB001B39FC001A39F700D811D112441
:10290000911DB29F700D811D1124911D089510E03D
:10291000CBEBD0E004C0FE010E9472142196CC3BA8
:10292000D107C9F7F894FFCF7D037D0301010100B2
:102930000040001400540000FF0100010000FFFFF0
:102940000000010001FF00000F131D00001008042B
:102950000201001008040201000000000000001045
:102960000804030001020404081000180402010016
:10297000000000000E0A0A0A0A1B001C10181704A7
:10298000060400000000003B040E045205E40307A7
:1029900004F403E503000000003A07170152055153
:0229A000050030
:103800000C94341C0C94511C0C94511C0C94511CA1
:103810000C94511C0C94511C0C94511C0C94511C74
:103820000C94511C0C94511C0C94511C0C94511C64
:103830000C94511C0C94511C0C94511C0C94511C54
:103840000C94511C0C94511C0C94511C0C94511C44
:103850000C94511C0C94511C0C94511C0C94511C34
:103860000C94511C0C94511C11241FBECFEFD4E0BA
:10387000DEBFCDBF11E0A0E0B1E0E4EAFFE302C0AB
:1038800005900D92A230B107D9F712E0A2E0B1E0A5
:1038900001C01D92AD30B107E1F70E94361D0C94B6
:1038A000D01F0C94001C982F9595959595959595FE
:1038B000905D8F708A307CF0282F295A8091C0004B
:1038C00085FFFCCF9093C6008091C00085FFFCCFA0
:1038D0002093C6000895282F205DF0CF982F809167
:1038E000C00085FFFCCF9093C6000895EF92FF9231
:1038F0000F931F93EE24FF2487018091C00087FD62
:1039000017C00894E11CF11C011D111D81E4E8168B
:1039100082E4F8068FE0080780E0180770F3E09172
:103920000401F091050109958091C00087FFE9CF5E
:103930008091C6001F910F91FF90EF9008950E9413
:10394000761C982F8091C00085FFFCCF9093C60015
:1039500091362CF490330CF09053892F089597559D
:10396000892F08951F930E949F1C182F0E949F1C4F
:103970001295107F810F1F910895882351F0982F81
:1039800091508091C00087FFFCCF8091C6009923A1
:10399000B9F708951F93182F0E94761C803249F0C2
:1039A000809103018F5F809303018530C1F01F91E7
:1039B00008958091C00085FFFCCF84E18093C6000C
:1039C0008091C00085FFFCCF1093C6008091C0009D
:1039D00085FFFCCF80E18093C6001F910895E091A0
:1039E0000401F091050109951F9108950E94761C2C
:1039F000803241F0809103018F5F80930301853015
:103A000081F008958091C00085FFFCCF84E1809310
:103A1000C6008091C00085FFFCCF80E18093C60086
:103A20000895E0910401F09105010995089510921F
:103A30000A028823D1F090E040E951E02D9A28EE67
:103A400033E0FA013197F1F721503040D1F72D984A
:103A500028EE33E0FA013197F1F721503040D1F7E9
:103A60009F5F981758F380930A0208953F924F92F0
:103A70005F926F927F928F929F92AF92BF92CF92FE
:103A8000DF92EF92FF920F931F93CF93DF9300008B
:103A900083E38093C4001092C50088E18093C10045
:103AA00086E08093C2005098589A259A81E00E943F
:103AB000171D44E1F42E3EE1E32E24E9D22E96E0D8
:103AC000C92E80E1B82EAA24A39401E4902E16E515
:103AD000812EB2E57B2EA0E26A2EF9E45F2EE3E5AB
:103AE0004E2E70E5372E0E94761C8033B1F1813363
:103AF00009F441C0803409F479C0813409F48CC0E0
:103B0000823471F1853409F47BC0803531F182351E
:103B100021F1813511F1853509F48DC0863509F41F
:103B20009DC0843609F4AEC0843709F41BC18537C3
:103B300009F485C1863709F47AC0809103018F5F4B
:103B400080930301853079F6E0910401F09105013D
:103B500009950E94761C803351F60E94F61CC3CF53
:103B600093E18091C00087FFFCCF8091C60099232C
:103B7000A1F39150F6CF0E94761C8032F1F680912D
:103B8000C00085FFFCCFF092C6008091C00085FF89
:103B9000FCCF9092C6008091C00085FFFCCF809240
:103BA000C6008091C00085FFFCCF7092C600809156
:103BB000C00085FFFCCF6092C6008091C00085FFE9
:103BC000FCCF5092C6008091C00085FFFCCF409290
:103BD000C6008091C00085FFFCCF3092C600809166
:103BE000C00085FFFCCFB092C6007DCF0E94761C3E
:103BF000863808F4B2CF0E94761C0E94F61C73CF60
:103C000094E08091C00087FFFCCF8091C60099238B
:103C100009F4A3CF9150F5CF0E94761C8038D1F0E3
:103C2000813861F1823809F499C0883979F080E0EF
:103C30000E94CA1C58CF0E94761C809306010E94E5
:103C4000761C809307010E94F61C4DCF83E00E94F2
:103C5000CA1C49CF82E00E94CA1C45CF0E94761C34
:103C6000803309F486C192E08091C00087FFFCCFC9
:103C70008091C6009923D9F29150F6CF81E00E943D
:103C8000CA1C31CF0E94761C809309020E94761CC8
:103C90008093080280910C028E7F80930C020E9418
:103CA000761C853429F480910C02816080930C028B
:103CB0008091080290910902892B89F000E010E0C0
:103CC0000E94761CF801E85FFE4F80830F5F1F4F54
:103CD00080910802909109020817190788F30E9441
:103CE000761C803209F029CF80910C0280FFD1C070
:103CF0004091060150910701440F551F5093070151
:103D000040930601A0910802B09109021097C9F0F2
:103D1000E8E0F1E09A01BD016E0F7F1FF999FECF37
:103D200032BD21BD819180BDFA9AF99A2F5F3F4F34
:103D3000E617F70799F74A0F5B1F50930701409367
:103D400006018091C00085FFFCCFF092C6008091F3
:103D5000C00085FFFCCFB092C600C5CE80E10E94B6
:103D6000CA1CC1CE0E94761C809309020E94761C58
:103D7000809308028091060190910701880F991F96
:103D800090930701809306010E94761C853409F404
:103D90007AC080910C028E7F80930C020E94761C68
:103DA000803209F0A0CE8091C00085FFFCCFF09258
:103DB000C600A0910802B09109021097B9F1809154
:103DC0000C02182F1170082F0270E0910601F0917B
:103DD00007019F012F5F3F4FB90140E050E01123E1
:103DE000B1F4002339F494918091C00085FFFCCF99
:103DF0009093C6004F5F5F4FCB010196F9014A17C0
:103E00005B0780F4BC012F5F3F4F112351F3F999F9
:103E1000FECFF2BDE1BDF89A90B58091C00085FF5C
:103E2000FCCFE6CF70930701609306018091C0003C
:103E300085FDD9CE8091C00085FFF8CFD4CE0E94F9
:103E4000761C803209F079CE8091C00085FFFCCFCE
:103E5000F092C6008091C00085FFFCCFE092C600C2
:103E60008091C00085FFFCCFD092C6008091C00039
:103E700085FFFCCFC092C6008091C00085FFFCCFBB
:103E8000B092C60030CE80910C02816080930C020B
:103E900085CF809107018823880F880B8A21809322
:103EA0000B028091060190910701880F991F909352
:103EB0000701809306018091080280FF09C080916C
:103EC00008029091090201969093090280930802DA
:103ED000F894F999FECF1127E0910601F0910701BE
:103EE000C8E0D1E08091080290910902103091F46D
:103EF0000091570001700130D9F303E0009357009F
:103F0000E8950091570001700130D9F301E1009369
:103F10005700E89509901990009157000170013001
:103F2000D9F301E000935700E8951395103498F009
:103F300011270091570001700130D9F305E000937B
:103F40005700E8950091570001700130D9F301E165
:103F500000935700E8953296029709F0C7CF1030CA
:103F600011F00296E5CF11248091C00085FFE9CEC3
:103F7000ECCE0E94761C0E94761C182F0E94761CA4
:103F8000112351F0113021F086E00E94CA1CABCD04
:103F900084E90E94CA1CA7CD8EE10E94CA1CA3CD51
:063FA000F894FFCF800041
:00000001FF
