:020000040000FA
:100000000C94C4000C94DE090C94B7090C94EC0019
:100010000C94EC000C94EC000C94EC000C94EC00B0
:100020000C94EC000C94EC000C94EC000C94EC00A0
:100030000C94EC000C94EC000C94EC000C94EC0090
:100040000C946D090C94EC000C94EC000C94EC00F6
:100050000C94EC000C94EC000C94EC000C94EC0070
:100060000C94050A0C94EC0008000000BE92244990
:10007000123EABAAAA2ABECDCCCC4C3E00000080DA
:10008000BEABAAAAAA3E00000000BF000000803F4D
:100090000000000000084178D3BB4387D1133D190D
:1000A0000E3CC3BD4282AD2B3E68EC8276BED98F3A
:1000B000E1A93E4C80EFFFBE01C4FF7F3F0000007E
:1000C0000000487A00663D0000000000250028007E
:1000D0002B0000000000230026002900000000087B
:1000E00000020100000304070000000000000000FF
:1000F00000000000240027002A000102040810204C
:1001000040800102040810200102040810200404A9
:1001100004040404040402020202020203030303AF
:100120000303526573657420746F2064656661759E
:100130006C74004572726F723A43524320454550C9
:10014000524F4D002D536861676779446F672032C5
:100150003032302D005369676E616C2047656E65E3
:100160007261746F72005377656570004368230095
:10017000332E337600352E307600202020202000CC
:100180002F320000240BF11111241FBECFEFD4E059
:10019000DEBFCDBF11E0A0E0B1E0E0E4FAE202C0D2
:1001A00005900D92AA37B107D9F722E0AAE7B1E08E
:1001B00001C01D92A13CB207E1F710E0C3ECD0E012
:1001C00004C02197FE010E94FE14C23CD107C9F76A
:1001D0000E94970B0C9413150C940000882389F04F
:1001E000EFEFE80FF0E06AE070E080E090E0FE17EB
:1001F00060F4AAE0B0E09B01AC010E94F314FF5F41
:10020000F6CF61E070E080E090E00895EAE4F2E08B
:100210008FEF21E39191892798E087FF09C0880F2C
:1002200082279150D1F792E0E635F90799F70895C2
:10023000880FF7CF08950895AF92BF92CF92DF92C3
:10024000EF92FF920F931F93CF93DF936C017B018B
:100250008B01040F151FEB015E01AE18BF08C0171C
:10026000D10759F06991D601ED91FC910190F0818F
:10027000E02DC6010995892B79F7C501DF91CF9152
:100280001F910F91FF90EF90DF90CF90BF90AF90B4
:100290000895833081F028F4813099F08230A9F0FC
:1002A00008958730A9F08830C9F08430B1F4809186
:1002B00080008F7D03C0809180008F7780938000C5
:1002C000089584B58F7784BD089584B58F7DFBCF65
:1002D0008091B0008F778093B00008958091B00036
:1002E0008F7DF9CFCF93DF93282F30E0F901E452CF
:1002F000FF4F8491F901E650FF4FD491F901E25F7D
:10030000FE4FC491CC23A1F081110E944901EC2F32
:10031000F0E0EE0FFF1FEE52FF4FA591B491EC916C
:10032000ED2381E090E009F480E0DF91CF91089522
:1003300080E090E0FACF1F93CF93DF93282F30E037
:10034000F901E452FF4F8491F901E650FF4FD49137
:10035000F901E25FFE4FC491CC23A9F0162F811161
:100360000E944901EC2FF0E0EE0FFF1FE853FF4F12
:10037000A591B4918FB7F894EC91111108C0D09564
:10038000DE23DC938FBFDF91CF911F910895DE2B89
:10039000F8CF1F93CF93DF93EC01809189028823DC
:1003A00009F452C080915902882361F08FB7F89404
:1003B000909159029130B9F59DB3909358029DB335
:1003C0009DBB8FBF88E58CBD81E08DBD60E08091D5
:1003D00088020E949B019C2F8D2F0CB405FC26C027
:1003E000DEBD00000DB407FEFDCF8EB59EBD000042
:1003F0000DB407FEFDCF8EB561E0809188020E94AA
:100400009B0180915902882351F09FB7F894209165
:100410005902809158022130A9F48DBB9FBFDF9112
:10042000CF911F91089580935802CCCFCEBD00008C
:100430000DB407FEFDCF9EB58EBD00000DB407FEC6
:10044000FDCFD9CF8FBFEBCF60E0809188020E94B3
:100450009B0110E16D2F661F6627661F8091860243
:100460000E949B0160E0809187020E949B0161E0F5
:10047000809187020E949B01CC0FDD1F115051F724
:1004800060E0809186020E949B0161E08091880279
:10049000DF91CF911F910C949B01909379028093EF
:1004A0007802209166023091670282309105E1F076
:1004B00068F40097B9F02D7D019779F0809166027C
:1004C000909167020E94C90181E0089584309105EE
:1004D00089F068F02F73059789F7309367022093AE
:1004E0006602ECCF206CF9CF2D7F2862F6CF257FF6
:1004F0002062F3CF2F7D2260F0CFEF92FF920F9317
:100500001F93CF93DF93EC01CB01BA01FE01EE0FF5
:10051000FF1FEE0FFF1FE658FD4F6083718382833C
:1005200093838E01000F111F000F111F98012A598C
:100530003D4F790120E030E040E85DE40E942F1457
:1005400020E23CEB4EEB5BE40E94A81220E030E09E
:1005500040E05FE30E943C120E941A13F70162839D
:10056000738384839583219759F1C0E0D0E480910F
:100570006602909167020E94C9010A591D4FF80155
:10058000828193819F738C2B9D2B0E94C901F8015E
:1005900082819381A481B5812EE0B695A795979528
:1005A00087952A95D1F79F738C2B9D2B0E94C901AB
:1005B00081E0DF91CF911F910F91FF90EF9008950F
:1005C000C0E0D0E8D4CFCF93DF9390E0FC01E650B9
:1005D000FF4F2491825F9E4FFC0184918823C9F0D4
:1005E00090E0880F991FFC01E051FF4FA591B49155
:1005F000FC01E853FF4FC591D49161110DC09FB725
:10060000F8948C91209582238C93888128232883C9
:100610009FBFDF91CF910895623051F49FB7F89456
:100620003C91822F809583238C93E8812E2BEFCFF2
:100630008FB7F894EC912E2B2C938FBFEACF3FB756
:10064000F8948091310290913202A0913302B091DE
:10065000340226B5A89B05C02F3F19F00196A11DB5
:10066000B11D3FBFBA2FA92F982F8827BC01CD01FC
:10067000620F711D811D911D42E0660F771F881F5B
:10068000991F4A95D1F708958F929F92AF92BF928A
:10069000CF92DF92EF92FF924B015C010E941F0309
:1006A0006B017C010E941F036C197D098E099F0953
:1006B000683E734081059105A8F321E0821A9108F4
:1006C000A108B10888EEC80E83E0D81EE11CF11C19
:1006D00081149104A104B10429F7FF90EF90DF90F9
:1006E000CF90BF90AF909F908F9008952FB7F894C0
:1006F00060912D0270912E0280912F029091300214
:100700002FBF0895CF92DF92EF92FF920F931F9326
:1007100080918B0282FD16C085FD14C080918C02F1
:100720000E94720130918B0231FB222720F933FBAA
:10073000332730F9232731E0892B09F030E02327D4
:1007400020939C020E947603AB01BC0190919C0215
:1007500020919D0280918A02992309F491C0211170
:100760008FC080FD6BC0816080938A0240939802A5
:100770005093990260939A0270939B0280919D021C
:10078000882389F1992379F180918F0290919002C9
:10079000B0E0A0E0009198021091990220919A0295
:1007A00030919B026A017B01C01AD10AE20AF30A66
:1007B00097018601081719072A073B07A0F08091C7
:1007C0008A0281FD10C090919502909397028A64ED
:1007D0008F7780938A024093980250939902609396
:1007E0009A0270939B028091980290919902A09135
:1007F0009A02B0919B02481B590B6A0B7B0B8091AC
:10080000910290919202B0E0A0E0481759076A0760
:100810007B0768F080919502882349F080939602C7
:100820001092950280918A02846080938A021F91BF
:100830000F91FF90EF90DF90CF9008950091980274
:100840001091990220919A0230919B026A017B01DA
:10085000C01AD10AE20AF30A00918D0210918E02A9
:1008600030E020E0C016D106E206F30608F4BBCF64
:1008700021E020939D028062806880938A027ECF6F
:100880008E7F80938A02911179CF222309F4ABCF16
:1008900010929D0281FD05C0809195028F5F80932B
:1008A000950280918A028D7F806180938A024093B5
:1008B00098025093990260939A0270939B0286FF6C
:1008C00007C010929602109295028F7B80938A0245
:1008D00080918A0287FF87CF8F7780938A028091E9
:1008E0008B02816080938B0249CF08952091E201B1
:1008F000260F3327331F21323105ECF420910602F5
:10090000FC0190E080E0243069F082E00895A0913D
:10091000E2012191AC014E535E4FA40FB52FB11DE2
:100920002C930196861798F38091E201680F6093EB
:10093000E20180E0089581E008951092060281E0CE
:10094000809308021092070261E082E10E949B01FD
:1009500061E083E10E949B01E9EBF0E080818E7F02
:10096000808380818D7F808388E48093B80085E4D4
:100970008093BC000895CF93DF9391E09093C101E1
:100980008823B9F0C091B800D091BA008091BC0022
:100990008A7B8093BC0060E082E10E949B0160E062
:1009A00083E10E949B010E949D04D093BA00C093F2
:1009B000B800DF91CF9108950895E0913C028091B5
:1009C0003B02E81730F4F0E0E456FE4F808190E0FF
:1009D00008958FEF9FEF089590913C0280913B0224
:1009E0002FEF3FEF981748F4E92FF0E0E456FE4F61
:1009F000208130E09F5F90933C02C901089580916F
:100A00003B0290913C02891B990B0895CF92DF9293
:100A1000EF92FF920F931F93CF93DF937C01CB0153
:100A20008A0120919B01222389F0EB016B01C40E06
:100A3000D51ECC15DD0569F06991D701ED91FC91CA
:100A40000190F081E02DC7010995F3CF642F0E943A
:100A50007604C801DF91CF911F910F91FF90EF9025
:100A6000DF90CF900895CF93DF931F92CDB7DEB77D
:100A7000698320919B012223F9F0209139022032D1
:100A800058F021E030E0FC013383228390E080E0E5
:100A90000F90DF91CF91089580913A02E82FF0E016
:100AA000E558FE4F998190838F5F80933A0280933F
:100AB000390281E090E0ECCF61E0CE0101960E9426
:100AC0007604F7CFCF92DF92EF92FF920F931F93AE
:100AD000CF93DF93FC01C48121E020939B01C0935D
:100AE0007A0110923A02109239028385682B8AE5C6
:100AF00092E00E943305D0913902D13208F092C0C1
:100B00000E941F036B017C0180910602811165C068
:100B100082E08093060281E0809308028FEF809349
:100B2000050210922A02D0932902ABE7B1E0E9E076
:100B3000F2E080E0D81385C010922B0280912B0246
:100B4000CC0FC82BC0932B0280910702813009F093
:100B50007CC0109207020E941F036B017C018091F0
:100B60002B028093BB008091BD019091BE01A091AA
:100B7000BF01B091C001892B8A2B8B2B99F00E9469
:100B80001F030091BD011091BE012091BF01309162
:100B9000C0016C197D098E099F09061717072807E0
:100BA0003907E0F18091BC0083FDD9CF85EC8093BB
:100BB000BC000E941F036B017C0180910602823001
:100BC00009F445C0809105028F3F61F180910502D3
:100BD000803241F18091050225C08091BD01909144
:100BE000BE01A091BF01B091C001892B8A2B8B2B34
:100BF00009F48ACF0E941F030091BD011091BE012C
:100C00002091BF013091C0016C197D098E099F09A7
:100C1000061717072807390708F076CF8091BC011F
:100C20000E94BB0410923A021092390210929B016A
:100C3000DF91CF911F910F91FF90EF90DF90CF90B8
:100C400008959D9191938F5F75CF85EEB0CF809180
:100C5000BD019091BE01A091BF01B091C001892B4F
:100C60008A2B8B2B09F4A9CF0E941F030091BD0191
:100C70001091BE012091BF013091C0016C197D0916
:100C80008E099F09061717072807390708F095CF1F
:100C9000C5CF089590E080E00895209166023091DC
:100CA00067028823C9F0C901986090936702809316
:100CB00066020E94C90180914E0290914F02A0915C
:100CC0005002B09151028093410290934202A0934E
:100CD0004302B09344020895C901977F909367023D
:100CE000809366020E94C90180914A0290914B0252
:100CF000A0914C02B0914D02E6CF813051F028F026
:100D0000823051F0833059F0089581E090E00C94E6
:100D10004D0284E090E0FBCF82E090E0F8CF83E0EA
:100D200090E0F5CFCF93DF93CAE4D2E06881798178
:100D30008A819B810E944913AB01BC0190E080E055
:100D40000E947D026C817D818E819F810E9449136A
:100D5000AB01BC0181E090E00E947D02EA85F0E0F9
:100D6000E65BFD4F80850E947D068A85DF91CF91ED
:100D70000C944D06CF9380919E020E947201C82F61
:100D800080919F020E947201880F990BC82B80915D
:100D9000A002C81709F45DC0E091A0024091A10231
:100DA0005091A2026091A3027091A40284E0E80233
:100DB000F00111248C2F0C2E000C990BE82BF92B31
:100DC000E15FFE4F9081892F990F990BAA0BBB0B06
:100DD000840F951FA61FB71F8093A1029093A202B4
:100DE000A093A302B093A402C33089F58091A1021D
:100DF0009091A202A091A302B091A40222E0B59525
:100E0000A795979587952A95D1F78093A5029093FA
:100E1000A602A093A702B093A8028091AD02909180
:100E2000AE02A091AF02B091B0028093B102909354
:100E3000B202A093B302B093B4020E94760360930F
:100E4000AD027093AE028093AF029093B002C09354
:100E5000A002CF9108950F931F93CF938C01C62FBB
:100E60000E9462056C2F6460C8010E9462056C2FAD
:100E70006B7FC8010E94620583EC90E00197F1F757
:100E8000CF911F910F9108950F931F93CF93DF93ED
:100E90008C01D62FC42F607F642B0E942B0780E12A
:100EA000D89FB00111246C2BC801DF91CF911F9105
:100EB0000F910C942B0740E0682F85EB92E00C9487
:100EC0004407CF93DF93CDB7DEB728970FB6F894DA
:100ED000DEBF0FBECDBF98E0E7E0F1E0DE01119686
:100EE00001900D929A95E1F79091BE02961708F441
:100EF0006FEF70E0660F771F21E030E02C0F3D1F91
:100F0000620F731FFB019081890F806828960FB6CE
:100F1000F894DEBF0FBECDBFDF91CF910C945B077D
:100F200081E00E945B078BE39FE10197F1F7089551
:100F3000E5EBF2E08681982F926096838A600C94AC
:100F40005B07E82FF0E0E15EFE4F808160E08031DA
:100F500010F0805161E00E9461070C94980781E0D5
:100F600080933F0210924002E5EBF2E086818E7F93
:100F7000868388600E945B0760E080E00E946107D2
:100F80000C94980741E00E94440781E090E00895A6
:100F90000F931F93CF93DF938B0128E0829FC001B3
:100FA000112480640E945B07E801085F1F4F69916C
:100FB00085EB92E00E94C207C017D107C1F7DF910D
:100FC000CF911F910F91089541E0682F85EB92E03A
:100FD0000E94440781E090E008950F931F93CF9300
:100FE000DF938C01D0E0C0E0F801EC0FFD1F6491AD
:100FF000662339F041E085EB92E00E944407219698
:10100000F3CFCE01DF91CF911F910F9108958F9271
:101010009F92AF92BF920F931F93CF93DF93CDB761
:10102000DEB7A1970FB6F894DEBF0FBECDBF19A2F1
:10103000423008F44AE08E010F5D1F4F842E912C40
:10104000B12CA12CA50194010E94D114E62FB90165
:10105000CA01EA3044F5E05DD801EE938D01232BFF
:10106000242B252B79F790E080E0109769F0FD01A3
:1010700001900020E9F73197AF014A1B5B0BBD01DE
:1010800085EB92E00E941C01A1960FB6F894DEBF9A
:101090000FBECDBFDF91CF911F910F91BF90AF9049
:1010A0009F908F900895E95CD7CF4F925F926F9297
:1010B0007F928F929F92AF92BF92CF92DF92FF92D8
:1010C0000F931F93CF93DF93CDB7DEB728970FB65B
:1010D000F894DEBF0FBECDBF4B015C0160E080E045
:1010E0000E94610785EC90E00E94ED078E010F5F82
:1010F0001F4FF12C68018AE0482E512C612C712C75
:10110000C501B401A30192010E94D114F8016193B9
:101110008F0149015A0181149104A104B10421F005
:10112000F394F8E0FF12ECCFAF2CB12C80913E028B
:10113000082E000C990BA816B90614F4F0923E0282
:1011400007E010E090915602892F817091FF46C010
:10115000A016B10644F5882339F0053011F00230AD
:1011600019F480E20E94E40780E20E94E407015043
:10117000110940F782EC90E028960FB6F894DEBF94
:101180000FBECDBFDF91CF911F910F91FF90DF90E8
:10119000CF90BF90AF909F908F907F906F905F9017
:1011A0004F900C94ED07882339F0053081F4F0124C
:1011B00013C080E20E94E407F601E00FF11F608196
:1011C00070E090E080E04AE00E940708D0CF023053
:1011D00099F7E2E0FE1669F387E2ECCF882339F055
:1011E000053011F0023019F487E20E94E407A016DE
:1011F000B10614F780E3B9CF85ED8093BC008091F0
:10120000BD019091BE01A091BF01B091C0010796B0
:10121000A11DB11D23E0B695A795979587952A95B1
:10122000D1F72091BC0024FD03C01092060208955E
:101230004091BD015091BE016091BF017091C0010C
:10124000452B462B472B69F30097A105B10541F0CB
:1012500025E32A95F1F700000197A109B109E1CF33
:101260008091BC010C94BB041F93CF93DF93D82FC4
:10127000C0E018E01092C00260E085EB92E00E94AE
:1012800062052FEF85EA9EE0215080409040E1F713
:1012900000C000001093C00260E085EB92E00E9465
:1012A00062052FEF85EA9EE0215080409040E1F7F3
:1012B00000C00000CF5FDC13DDCFDF91CF911F9125
:1012C00008950E940601809357024EE050E070E0BE
:1012D00060E08AE492E00C9419121F920F920FB60C
:1012E0000F9211242F933F938F939F93AF93BF93AC
:1012F00080912D0290912E02A0912F02B091300288
:1013000030912C0223E0230F2D3758F50196A11DB3
:10131000B11D20932C0280932D0290932E02A09356
:101320002F02B09330028091310290913202A0914D
:101330003302B09134020196A11DB11D8093310298
:1013400090933202A0933302B0933402BF91AF91D5
:101350009F918F913F912F910F900FBE0F901F90F3
:10136000189526E8230F0296A11DB11DD2CF1F921A
:101370000F920FB60F9211242F933F934F935F93C9
:101380006F937F938F939F93AF93BF93EF93FF934D
:10139000E0910201F09103010995FF91EF91BF9156
:1013A000AF919F918F917F916F915F914F913F91FD
:1013B0002F910F900FBE0F901F9018951F920F92B4
:1013C0000FB60F9211242F933F934F935F936F9318
:1013D0007F938F939F93AF93BF93EF93FF93E0918E
:1013E0000001F09101010995FF91EF91BF91AF913B
:1013F0009F918F917F916F915F914F913F912F912D
:101400000F900FBE0F901F9018951F920F920FB65E
:101410000F9211242F933F934F935F936F937F937A
:101420008F939F93AF93BF93EF93FF938091B900F6
:10143000887F803609F44AC0F0F5883209F4A7C0E5
:1014400018F5803109F49BC0B8F4882309F4F9C079
:10145000883009F494C0FF91EF91BF91AF919F91B3
:101460008F917F916F915F914F913F912F910F904D
:101470000FBE0F901F901895883109F488C08032F4
:1014800051F78093050214C0803409F49DC040F4E4
:101490008033B9F38833F9F68093050285ECB0C048
:1014A000803509F485C0883509F496C0883499F6EA
:1014B0000E94FC08D0CF883909F48CC038F58837F1
:1014C00029F050F4883611F0803729F683E08093B4
:1014D00006021092040257C0883809F47BC0803994
:1014E00019F0803809F0B7CF80910402803208F0FB
:1014F00071C0E091040281E08E0F8093040280911C
:10150000BB00F0E0EC51FE4F80833DC0803B39F0E2
:10151000E0F4803A09F479C0883A09F09CCF84E07D
:10152000809306021092E3011092E201E0913702EB
:10153000F091380209958091E20181110FC081E09C
:101540008093E2011092C20109C0803C09F4A6CF49
:10155000883C09F4A3CF883B09F07DCFE091E301FB
:1015600081E08E0F8093E301F0E0EE53FE4F808127
:101570008093BB009091E3018091E20129C08091AA
:101580002B028093BB0085EC8093BC0064CF9091CC
:101590002A0280912902981758F5E0912A0281E0E9
:1015A0008E0F80932A02F0E0E75FFD4F8081E9CF44
:1015B000E0912A0281E08E0F80932A028091BB0085
:1015C000F0E0E75FFD4F808390912A02809129022D
:1015D0009817C8F285E8D8CFE0912A0281E08E0FF3
:1015E00080932A028091BB00F0E0E75FFD4F80838B
:1015F0008091080281115CCF81E08093070284EA28
:101600008093BC001092060226CF85EC8093BC002C
:101610001092060280910402803230F4E0910402BC
:10162000F0E0EC51FE4F10826091040270E0E09116
:101630003502F091360284EE91E009951092040291
:101640000ACF1092050234CF1F93CF93DF93EAE5C0
:10165000F2E01382128288EE93E0A0E0B0E084838F
:101660009583A683B78380E691E091838083E5EB41
:10167000F2E01382128282E791E0918380838FE30C
:10168000848380E1808782E08187128698E0938757
:10169000CEE9D2E013E01883898362E083E00E9400
:1016A000E30262E082E00E94E3021A831B821C8252
:1016B0001D821E821F82188619861A861B861C862A
:1016C0001D861E86EAE8F2E08CE390E09483838333
:1016D00084EF91E0968385839087878380E991E00A
:1016E0009287818713861486158616861786108A38
:1016F000118A128A138A84E08283CBE8D2E088813F
:101700008F7D877F888362E084E00E94E302888186
:101710008B7E8D7F8883E6E6F2E010A211A28AE03C
:1017200082A381E083A3DF91CF911F9108957894E4
:1017300084B5826084BD84B5816084BD85B58260D6
:1017400085BD85B5816085BD80916E008160809387
:101750006E001092810080918100826080938100F0
:101760008091810081608093810080918000816000
:10177000809380008091B10084608093B10080915B
:10178000B00081608093B00080917A008460809383
:101790007A0080917A00826080937A0080917A004A
:1017A000816080937A0080917A00806880937A00CB
:1017B0001092C10010923C0210923B0210923A0229
:1017C000109239020E949D048AE191E090933802C0
:1017D000809337028BE191E090933602809335023B
:1017E0001092BA028091BE02823018F098E0909375
:1017F000BA029091BF02992339F0813029F4809187
:10180000BA0284608093BA0262E370E080E090E004
:101810000E9444036091C00285EB92E00E94620541
:1018200068EE73E080E090E00E94440360E385EBA3
:1018300092E00E942B07CBE4D6E4CE010197F1F7AA
:1018400060E385EB92E00E942B072197F1F760E3BC
:1018500085EB92E00E942B0783E592E00197F1F778
:1018600060E285EB92E00E942B078091BA028062D1
:101870000E945B0784E08093BB028CE00E945B07C0
:101880000E94900782E08093BC0286E00E945B0782
:1018900082E00E945B07CBE3DFE1CE010197F1F725
:1018A00064E571E080E00E94C8076CE471E081E0CB
:1018B0000E94C80764E371E082E00E94C8076CE3FD
:1018C00071E083E00E94C80764E471E084E00E9454
:1018D000C80764E271E085E00E94C8076CE271E02D
:1018E00086E00E94C80782E00E945B072197F1F71B
:1018F00088E08093C00260E085EB92E00E94620580
:1019000085E591E00E94ED0761E080E00E946107BB
:1019100084E491E00E94ED072FEF8DE399E42150DC
:1019200080409040E1F700C0000080918902882348
:1019300009F4B5C2CFB7F89480913D02811127C058
:10194000E8E1F1E08491E4E0F1E09491E82FF0E047
:10195000EE0FFF1FE051FF4FA591B491EC91E923E9
:1019600021F461E08AE00E949B0161E08AE00E942C
:10197000E3028CB580618CBD8CB580648CBD61E068
:101980008DE00E94E30261E08BE00E94E30280911F
:101990003D028F5F80933D02CFBF61E0809188025E
:1019A0000E94E30261E0809188020E949B0180E036
:1019B00090E290936702809366020E94C901809131
:1019C000660290916702916090936702809366022D
:1019D0000E94C90140E050E06AE774E490E080E0D2
:1019E0000E947D0240E050E06AE774E481E090E00C
:1019F0000E947D0210928302109282021092700265
:101A000010927102109272021092730280E090ECB8
:101A10000E94C901109285021092840210927402F1
:101A200010927502109276021092770280E090EE8A
:101A30000E94C90180916602909167029160909323
:101A40006702809366020E94C901809166029091AC
:101A500067029E7F90936702809366020E94C9018D
:101A600081E090E090937902809378028091660201
:101A7000909167028D7190936702809366020E9435
:101A8000C9018091660290916702977F90936702E7
:101A9000809366020E94C90180916602909167025C
:101AA0009B7F90936702809366020E94C9014EE07B
:101AB00050E070E060E08AE492E00E9409120E9427
:101AC0000601909157028913FAC10E949206C0E064
:101AD00084E00E947201892B11F0CC23A9F160E00F
:101AE00080E00E94610782E291E00E94ED0788EEAB
:101AF00093E0A0E0B0E080934E0290934F02A09359
:101B00005002B093510280934A0290934B02A093EB
:101B10004C02B0934D021092530210925202109256
:101B200055021092540283E0809356020E943409B9
:101B30000E94920684E00E947201892BD9F30E94D0
:101B40009007C1110E9461092AEB36E0309303012E
:101B50002093020180916900837F846080936900F3
:101B6000E99A3093010120930001809169008C7FF4
:101B7000816080936900E89A61E086E00E94E30258
:101B80006091550286E00E949B0161E085E00E9421
:101B9000E302E0915402F0E0E65BFD4F8085825065
:101BA00061E0823008F060E085E00E949B018FEFE9
:101BB00091EEA4E081509040A040E1F700C0000009
:101BC0000E949007C0E0D0E011E042E0342E3BE0FC
:101BD000232E0E94820380918B0284FD0E94820347
:101BE00080918A0282FF13C090919602913079F41D
:101BF000109296028B7F80938A0280913F028130FF
:101C000009F47AC108F4E1C1823009F4D4C18091A9
:101C10008B0284FD0E94820380918A0283FF0BC0A5
:101C2000877F80938A0280913F02813009F4D0C17E
:101C3000823009F4D4C180918B0284FD0E9482031A
:101C400080918A0282FF18C0909196029230A1F48E
:101C50008B7F80938A021092960280913F0281309E
:101C600009F4C0C1823009F055C280913E021816B5
:101C70001CF4815080933E0280918B0284FD0E946F
:101C8000820380918A0282FF15C090919602933060
:101C900089F48B7F80938A0210929602809156027B
:101CA0008F5F843009F43CC2809356021093060182
:101CB0000E9490074091A9025091AA026091AB0244
:101CC0007091AC028091A5029091A602A091A7020A
:101CD000B091A80284179507A607B7070CF025C294
:101CE0004091A5025091A6026091A7027091A802AE
:101CF0008091A9029091AA02A091AB02B091AC028E
:101D00000197A109B109481759076A077B070CF425
:101D10000AC29FEF4091A5025091A6026091A702CE
:101D20007091A8024093A9025093AA026093AB025B
:101D30007093AC0280913F02813009F4A6C28230D8
:101D400009F4BCC280914902882391F10E94760374
:101D5000C0904502D0904602E0904702F0904802C1
:101D60006C197D098E099F096139714081059105C2
:101D7000F8F0E0905402609141027091420280912B
:101D8000430290914402F12CF701EE0FFF1FEE0F7A
:101D9000FF1FE65BFD4F60837183828393830E9404
:101DA0004913AB01BC01C7010E947D021092490298
:101DB00080910601882309F464C06091410270910A
:101DC000420280914302909144020E945508F09093
:101DD00005018091560260E080FF92C28FE00E9470
:101DE00061078EE7F11001C08BED0E94E407F090CF
:101DF000540261E080E00E9461078CE691E00E945D
:101E0000ED076F2D70E090E080E04AE00E94070847
:101E1000E0915402F0E0E65BFD4FF084E090550263
:101E200061E086E00E9461078EEF8F0D823008F03E
:101E300076C261E085EB92E00E94C20785E791E0FF
:101E4000E11002C080E791E00E94ED07E0915402AA
:101E5000F0E0E65BFD4F008561E08DE00E946107E8
:101E6000013009F46FC208F45DC2023009F474C293
:101E7000033009F47DC2809140020E94A1071092B4
:101E8000060180913F02882309F47CC2823009F464
:101E900096C2209709F49DCE0E94000098CE61E082
:101EA000809186020E94E30260E0809187020E9496
:101EB0009B0161E0809187020E94E3026ECD60E0A9
:101EC00080E00E94610783E391E00E94ED0761E0FA
:101ED00080E00E94610782E291E00E94ED07AFEF8F
:101EE000BBE722E9A150B0402040E1F700C000006C
:101EF0000E949007C1E0ECCD90914002923009F42D
:101F00003FC038F4992341F1913059F11093060103
:101F10007ECE933009F444C09430C1F7E09154026E
:101F2000F0E0E65BFD4F80858F5F843009F441C0AF
:101F300080878085825061E0823008F060E085E033
:101F40000E949B01BFEF21EE84E0B1502040804011
:101F5000E1F700C000001BC030923F020E949807CA
:101F6000D5CF80910501982790930501992329F0F9
:101F700085E090E00E944D02C9CF90E080E0FACF6A
:101F8000609154028627809354020E944D06E0918E
:101F90005402F0E0E65BFD4F80850E947D06B6CFDF
:101FA0006091550268276093550286E00E949B016C
:101FB000ADCF1086BECF80913E02873024F48F5F74
:101FC00080933E0224CE10923E020E94AF071FCEA5
:101FD00010923F0210924002809304012CCE0E9486
:101FE000AF0729CE80914002823009F045CE809122
:101FF0005402811141CE61E00E94610786E691E0C2
:102000000E94ED078091BB02982F91609093BB02D4
:1020100089600E945B0740904E0250904F02609092
:1020200050027090510280904A0290904B02A09012
:102030004C02B0904D027501640180914E02909166
:102040004F02A0915002B0915102481459046A0401
:102050007B04C8F1C816D906EA06FB06C8F5C70115
:10206000B6010E9449130E94D7130E941A13862FAB
:10207000611181500E94EE00481459046A047B04E7
:1020800008F443C0C60ED71EE81EF91EC701B601EC
:102090000E944913AB01BC0190E080E00E947D02E8
:1020A000C701B6010E94550884E00E947201892B85
:1020B00079F09FEFA4E3BCE09150A040B040E1F77D
:1020C00000C00000BACF8C159D05AE05BF0538F2E3
:1020D00010934902109306012FEF8BE792E92150EC
:1020E00080409040E1F700C0000061E084E00E9481
:1020F000610780E20E94E4078091BB028E7F80939B
:10210000BB0288600E945B07B7CDC61AD70AE80AEF
:10211000F90ABCCF0E94610982E00E943409ACCD6B
:1021200010925602C3CD9EEFF5CD4091A902509179
:10213000AA026091AB027091AC028091A5029091CD
:10214000A602A091A702B091A802481759076A07F2
:102150007B070CF0F7CD4091A5025091A60260914B
:10216000A7027091A8028091A9029091AA02A09161
:10217000AB02B091AC020196A11DB11D8417950769
:10218000A607B7070CF45EC091E04091A5025091FC
:10219000A6026091A7027091A8024093A9025093F1
:1021A000AA026093AB027093AC0280913F0281302F
:1021B00009F44DC008F448C0823009F0C3CD8091C5
:1021C0003E02C0904102D0904202E0904302F09063
:1021D0004402923009F48F5F0E94EE00C60ED71EB3
:1021E000E81EF91EC0924102D0924202E0924302E0
:1021F000F09244028091410290914202A0914302E8
:10220000B091440281329C4BAE4BB10560F080E24C
:102210009CEBAEEBB0E08093410290934202A0931E
:102220004302B09344020E94760360934502709388
:1022300046028093470290934802109349021093FC
:10224000060180CD92E0A1CF0E94AF077BCD8091A7
:1022500040028F5F80934002E0915402F0E0E65B21
:10226000FD4F90859250923028F0833019F484E02D
:102270008093400280914002853011F41092400218
:10228000809140020E94A1075DCD809140028111A2
:1022900004C084E080934002F3CF815080934002D9
:1022A000E0915402F0E0E65BFD4F90859250923051
:1022B00038F3833029F730924002E2CF80913E021A
:1022C000C0904102D0904202E0904302F09044025C
:1022D0009E3F09F48F5F0E94EE006C157D058E0510
:1022E0009F0508F02FCDC61AD70AE80AF90AC0924E
:1022F0004102D0924202E0924302F092440293CF14
:102300008EE00E9461078FE40E94E4078EE4F110E2
:102310006CCD60E085EB92E00E94C20768CD8AE751
:1023200091E092CD62E085EB92E00E94C20763E00B
:1023300085EB92E00E94C20764E085EB92E00E9488
:10234000C20799CD65E085EB92E00E94C2078FE25B
:102350000E94E40766E0F1CF61E085EB92E00E9425
:10236000C20761E085EB92E00E94C20761E0E5CF21
:1023700061E085EB92E00E94C20780E891E00E9454
:10238000ED0779CD80910401882309F482CD60E0C6
:1023900080E00E9461078091BB028D7F8093BB0229
:1023A00088600E945B078091BB02982F9160909398
:1023B000BB0289600E945B07109204016ACD909174
:1023C0003E028091560280FF06C0822D933024F099
:1023D0008AE096300CF089E0891B60E00E9461077A
:1023E00058CD80918902882399F09FB7F894809105
:1023F0003D02882319F0815080933D0280913D0277
:10240000811105C08CB58F7B8CBD109259029FBF86
:102410000895DC01CB01FC01F999FECF06C0F2BDA5
:10242000E1BDF89A319600B40D9241505040B8F792
:102430000895DC01A40FB51F4150504048F0CB0176
:10244000840F951F2E910E942A1241505040D0F7C0
:102450000895262FF999FECF92BD81BDF89A019774
:1024600000B4021639F01FBA20BD0FB6F894FA9ADC
:10247000F99A0FBE08955058BB27AA270E945312FD
:102480000C949D130E948F1338F00E94961320F035
:1024900039F49F3F19F426F40C948C130EF4E09554
:1024A000E7FB0C948613E92F0E94AE1358F3BA177A
:1024B000620773078407950720F079F4A6F50C945A
:1024C000D0130EF4E0950B2EBA2FA02D0B01B901FD
:1024D00090010C01CA01A0011124FF27591B99F09A
:1024E000593F50F4503E68F11A16F040A22F232FA6
:1024F000342F4427585FF3CF469537952795A795F6
:10250000F0405395C9F77EF41F16BA0B620B730B9C
:10251000840BBAF09150A1F0FF0FBB1F661F771F0D
:10252000881FC2F70EC0BA0F621F731F841F48F4C2
:10253000879577956795B795F7959E3F08F0B0CF4B
:102540009395880F08F09927EE0F97958795089532
:102550000E94BC120C949D130E94961358F00E9486
:102560008F1340F029F45F3F29F00C94861351112A
:102570000C94D1130C948C130E94AE1368F399231E
:10258000B1F3552391F3951B550BBB27AA2762176F
:102590007307840738F09F5F5F4F220F331F441F7C
:1025A000AA1FA9F335D00E2E3AF0E0E832D09150B0
:1025B0005040E695001CCAF72BD0FE2F29D0660F9D
:1025C000771F881FBB1F261737074807AB07B0E8E0
:1025D00009F0BB0B802DBF01FF2793585F4F3AF0E6
:1025E0009E3F510578F00C9486130C94D1135F3FF5
:1025F000E4F3983ED4F3869577956795B795F7956C
:102600009F5FC9F7880F911D9695879597F9089553
:10261000E1E0660F771F881FBB1F621773078407EF
:10262000BA0720F0621B730B840BBA0BEE1F88F7FE
:10263000E09508950E94B61388F09F5798F0B92F3F
:102640009927B751B0F0E1F0660F771F881F991FE7
:102650001AF0BA95C9F714C0B13091F00E94D013A6
:10266000B1E008950C94D013672F782F8827B85FB6
:1026700039F0B93FCCF3869577956795B395D9F73F
:102680003EF490958095709561957F4F8F4F9F4F49
:102690000895E89409C097FB3EF490958095709555
:1026A00061957F4F8F4F9F4F9923A9F0F92F96E99E
:1026B000BB279395F695879577956795B795F11113
:1026C000F8CFFAF4BB0F11F460FF1BC06F5F7F4FB0
:1026D0008F4F9F4F16C0882311F096E911C07723C2
:1026E00021F09EE8872F762F05C0662371F096E8CB
:1026F000862F70E060E02AF09A95660F771F881F9A
:10270000DAF7880F9695879597F9089597F99F6757
:1027100080E870E060E008959FEF80EC0895002469
:102720000A941616170618060906089500240A9436
:1027300012161306140605060895092E0394000CBC
:1027400011F4882352F0BB0F40F4BF2B11F460FF4B
:1027500004C06F5F7F4F8F4F9F4F089557FD905874
:10276000440F551F59F05F3F71F04795880F97FB55
:10277000991F61F09F3F79F087950895121613060F
:102780001406551FF2CF4695F1DF08C0161617063E
:102790001806991FF1CF8695710561050894089573
:1027A000E894BB2766277727CB0197F908950E9405
:1027B000E71329ED3BE54EED5EE30C942F1416F084
:1027C0000C949C140C948C1368940C9486130E94A3
:1027D000B613A8F39923C1F3AEF3DF93CF931F93FE
:1027E0000F93FF92C92FDD2788232AF02197660FC8
:1027F000771F881FDAF720E030E040E85FEB9FE3C7
:10280000883920F0803E38F021968F770E943C1264
:10281000E8E6F0E004C00E943C12E5E9F0E00E9426
:10282000AA148B01BE01EC01FB2E6F57710975953F
:10283000771F880B990B0E944B1328E132E741E385
:102840005FE30E944214AF2D9801AE01FF900F91FB
:102850001F91CF91DF910E9453120C949D130E94FF
:1028600042140C949D130E948F1338F00E9496130B
:1028700020F0952311F00C9486130C948C131124E2
:102880000C94D1130E94AE1370F3959FC1F3950F72
:1028900050E0551F629FF001729FBB27F00DB11DE4
:1028A000639FAA27F00DB11DAA1F649F6627B00D74
:1028B000A11D661F829F2227B00DA11D621F739F5D
:1028C000B00DA11D621F839FA00D611D221F749F6B
:1028D0003327A00D611D231F849F600D211D822FB2
:1028E000762F6A2F11249F5750409AF0F1F08823D9
:1028F0004AF0EE0FFF1FBB1F661F771F881F915006
:102900005040A9F79E3F510580F00C9486130C941B
:10291000D1135F3FE4F3983ED4F38695779567959E
:10292000B795F795E7959F5FC1F7FE2B880F911D2F
:102930009695879597F908959F3F31F0915020F42F
:10294000879577956795B795880F911D969587958B
:1029500097F90895DF93CF931F930F93FF92EF9210
:10296000DF927B018C01689406C0DA2EEF010E9491
:102970004214FE01E894A591259135914591559118
:10298000A6F3EF010E945312FE019701A801DA9409
:1029900069F7DF90EF90FF900F911F91CF91DF913A
:1029A0000895A1E21A2EAA1BBB1BFD010DC0AA1F90
:1029B000BB1FEE1FFF1FA217B307E407F50720F0A8
:1029C000A21BB30BE40BF50B661F771F881F991F23
:1029D0001A9469F760957095809590959B01AC016C
:1029E000BD01CF0108950E940415A59F900DB49FCD
:1029F000900DA49F800D911D11240895EE0FFF1FCF
:102A00000590F491E02D0994A29FB001B39FC001FD
:102A1000A39F700D811D1124911DB29F700D811D0A
:102A20001124911D089510E0C3ECD0E004C0FE0114
:102A30000E94FE142196C43CD107C9F7F894FFCF39
:102A400075047504010101000040001400540000E9
:102A5000FF0100010000FFFF0000010001FF000076
:102A60000F13161D000010080402010010080402D4
:102A7000010000000000000010080403000102042F
:102A8000040810001804020100000000000E0A0AE9
:102A90000A0A1B001C10181704060400000000009E
:102AA000330506054A06DC04FF04EC04DD040000DF
:0A2AB0000000C2071C014A06490697
:103800000C94341C0C94511C0C94511C0C94511CA1
:103810000C94511C0C94511C0C94511C0C94511C74
:103820000C94511C0C94511C0C94511C0C94511C64
:103830000C94511C0C94511C0C94511C0C94511C54
:103840000C94511C0C94511C0C94511C0C94511C44
:103850000C94511C0C94511C0C94511C0C94511C34
:103860000C94511C0C94511C11241FBECFEFD4E0BA
:10387000DEBFCDBF11E0A0E0B1E0E4EAFFE302C0AB
:1038800005900D92A230B107D9F712E0A2E0B1E0A5
:1038900001C01D92AD30B107E1F70E94361D0C94B6
:1038A000D01F0C94001C982F9595959595959595FE
:1038B000905D8F708A307CF0282F295A8091C0004B
:1038C00085FFFCCF9093C6008091C00085FFFCCFA0
:1038D0002093C6000895282F205DF0CF982F809167
:1038E000C00085FFFCCF9093C6000895EF92FF9231
:1038F0000F931F93EE24FF2487018091C00087FD62
:1039000017C00894E11CF11C011D111D81E4E8168B
:1039100082E4F8068FE0080780E0180770F3E09172
:103920000401F091050109958091C00087FFE9CF5E
:103930008091C6001F910F91FF90EF9008950E9413
:10394000761C982F8091C00085FFFCCF9093C60015
:1039500091362CF490330CF09053892F089597559D
:10396000892F08951F930E949F1C182F0E949F1C4F
:103970001295107F810F1F910895882351F0982F81
:1039800091508091C00087FFFCCF8091C6009923A1
:10399000B9F708951F93182F0E94761C803249F0C2
:1039A000809103018F5F809303018530C1F01F91E7
:1039B00008958091C00085FFFCCF84E18093C6000C
:1039C0008091C00085FFFCCF1093C6008091C0009D
:1039D00085FFFCCF80E18093C6001F910895E091A0
:1039E0000401F091050109951F9108950E94761C2C
:1039F000803241F0809103018F5F80930301853015
:103A000081F008958091C00085FFFCCF84E1809310
:103A1000C6008091C00085FFFCCF80E18093C60086
:103A20000895E0910401F09105010995089510921F
:103A30000A028823D1F090E040E951E02D9A28EE67
:103A400033E0FA013197F1F721503040D1F72D984A
:103A500028EE33E0FA013197F1F721503040D1F7E9
:103A60009F5F981758F380930A0208953F924F92F0
:103A70005F926F927F928F929F92AF92BF92CF92FE
:103A8000DF92EF92FF920F931F93CF93DF9300008B
:103A900083E38093C4001092C50088E18093C10045
:103AA00086E08093C2005098589A259A81E00E943F
:103AB000171D44E1F42E3EE1E32E24E9D22E96E0D8
:103AC000C92E80E1B82EAA24A39401E4902E16E515
:103AD000812EB2E57B2EA0E26A2EF9E45F2EE3E5AB
:103AE0004E2E70E5372E0E94761C8033B1F1813363
:103AF00009F441C0803409F479C0813409F48CC0E0
:103B0000823471F1853409F47BC0803531F182351E
:103B100021F1813511F1853509F48DC0863509F41F
:103B20009DC0843609F4AEC0843709F41BC18537C3
:103B300009F485C1863709F47AC0809103018F5F4B
:103B400080930301853079F6E0910401F09105013D
:103B500009950E94761C803351F60E94F61CC3CF53
:103B600093E18091C00087FFFCCF8091C60099232C
:103B7000A1F39150F6CF0E94761C8032F1F680912D
:103B8000C00085FFFCCFF092C6008091C00085FF89
:103B9000FCCF9092C6008091C00085FFFCCF809240
:103BA000C6008091C00085FFFCCF7092C600809156
:103BB000C00085FFFCCF6092C6008091C00085FFE9
:103BC000FCCF5092C6008091C00085FFFCCF409290
:103BD000C6008091C00085FFFCCF3092C600809166
:103BE000C00085FFFCCFB092C6007DCF0E94761C3E
:103BF000863808F4B2CF0E94761C0E94F61C73CF60
:103C000094E08091C00087FFFCCF8091C60099238B
:103C100009F4A3CF9150F5CF0E94761C8038D1F0E3
:103C2000813861F1823809F499C0883979F080E0EF
:103C30000E94CA1C58CF0E94761C809306010E94E5
:103C4000761C809307010E94F61C4DCF83E00E94F2
:103C5000CA1C49CF82E00E94CA1C45CF0E94761C34
:103C6000803309F486C192E08091C00087FFFCCFC9
:103C70008091C6009923D9F29150F6CF81E00E943D
:103C8000CA1C31CF0E94761C809309020E94761CC8
:103C90008093080280910C028E7F80930C020E9418
:103CA000761C853429F480910C02816080930C028B
:103CB0008091080290910902892B89F000E010E0C0
:103CC0000E94761CF801E85FFE4F80830F5F1F4F54
:103CD00080910802909109020817190788F30E9441
:103CE000761C803209F029CF80910C0280FFD1C070
:103CF0004091060150910701440F551F5093070151
:103D000040930601A0910802B09109021097C9F0F2
:103D1000E8E0F1E09A01BD016E0F7F1FF999FECF37
:103D200032BD21BD819180BDFA9AF99A2F5F3F4F34
:103D3000E617F70799F74A0F5B1F50930701409367
:103D400006018091C00085FFFCCFF092C6008091F3
:103D5000C00085FFFCCFB092C600C5CE80E10E94B6
:103D6000CA1CC1CE0E94761C809309020E94761C58
:103D7000809308028091060190910701880F991F96
:103D800090930701809306010E94761C853409F404
:103D90007AC080910C028E7F80930C020E94761C68
:103DA000803209F0A0CE8091C00085FFFCCFF09258
:103DB000C600A0910802B09109021097B9F1809154
:103DC0000C02182F1170082F0270E0910601F0917B
:103DD00007019F012F5F3F4FB90140E050E01123E1
:103DE000B1F4002339F494918091C00085FFFCCF99
:103DF0009093C6004F5F5F4FCB010196F9014A17C0
:103E00005B0780F4BC012F5F3F4F112351F3F999F9
:103E1000FECFF2BDE1BDF89A90B58091C00085FF5C
:103E2000FCCFE6CF70930701609306018091C0003C
:103E300085FDD9CE8091C00085FFF8CFD4CE0E94F9
:103E4000761C803209F079CE8091C00085FFFCCFCE
:103E5000F092C6008091C00085FFFCCFE092C600C2
:103E60008091C00085FFFCCFD092C6008091C00039
:103E700085FFFCCFC092C6008091C00085FFFCCFBB
:103E8000B092C60030CE80910C02816080930C020B
:103E900085CF809107018823880F880B8A21809322
:103EA0000B028091060190910701880F991F909352
:103EB0000701809306018091080280FF09C080916C
:103EC00008029091090201969093090280930802DA
:103ED000F894F999FECF1127E0910601F0910701BE
:103EE000C8E0D1E08091080290910902103091F46D
:103EF0000091570001700130D9F303E0009357009F
:103F0000E8950091570001700130D9F301E1009369
:103F10005700E89509901990009157000170013001
:103F2000D9F301E000935700E8951395103498F009
:103F300011270091570001700130D9F305E000937B
:103F40005700E8950091570001700130D9F301E165
:103F500000935700E8953296029709F0C7CF1030CA
:103F600011F00296E5CF11248091C00085FFE9CEC3
:103F7000ECCE0E94761C0E94761C182F0E94761CA4
:103F8000112351F0113021F086E00E94CA1CABCD04
:103F900084E90E94CA1CA7CD8EE10E94CA1CA3CD51
:063FA000F894FFCF800041
:00000001FF
